:100000000C9446000C9429010C9465000C94650036
:100010000C9465000C9465000C9465000C946500CC
:100020000C9465000C9465000C9465000C946500BC
:100030000C9465000C9465000C9465000C946500AC
:100040000C9465000C9465000C9465000C9465009C
:100050000C9465000C9465000C9465000C9465008C
:100060000C9465000C9465000C9465000C9465007C
:100070000C9465000C9480020C9465000C9465004F
:100080000C9465000C9465000C94650011241FBE4F
:10009000CFEFD0E1DEBFCDBF11E0A0E0B1E0E6E3FD
:1000A000F6E000E00BBF02C007900D92A030B10750
:1000B000D9F711E0A0E0B1E001C01D92A631B1076F
:1000C000E1F70E94F6000C9419030C9400008FEFE6
:1000D0008ABB87BB87E084BB11BA8EE082B91092DD
:1000E00061001BBA15BA089582E080936A0081E02E
:1000F00089BF089582E080938B008AE180938A0013
:1001000084E080937D0080E49CE99093810080935B
:100110008000089582EA8FBD89E18EBD80E89EE36C
:1001200097BD86BD1BBC1ABC19BC18BC08951092A3
:10013000900088E089B988E18AB986E080939500CB
:10014000089517B887E886B908955D9BFECF8CB9EE
:1001500008955F9BFECF8CB10895CF93DF93EC01A0
:100160005D9BFECFBE0180E090E020EA36E841E0F2
:1001700050E00E94DC0220E137E240E050E00E94C3
:10018000DC02205D2CB95D9BFECFCE0160E177E201
:100190000E94C80268EE73E00E94C802605D6CB9FC
:1001A0005D9BFECFCE0168EE73E00E94C80264E65C
:1001B00070E00E94C802605D6CB95D9BFECFCE010D
:1001C00064E670E00E94C8026AE070E00E94C80223
:1001D000605D6CB95D9BFECFCE016AE070E00E946D
:1001E000C802805D8CB9DF91CF9108950E946700AD
:1001F00022E020938B008AE180938A0084E0809340
:100200007D0080E49CE9909381008093800020939E
:100210006A0081E089BF17B887E886B9109290001C
:1002200088E089B988E18AB986E08093950082EAFE
:100230008FBD89E18EBD80E89EE397BD86BD1BBC66
:100240001ABC19BC18BC78945D9BFECF80E38CB9B6
:10025000FFCF1F920F920FB60F9211248F939F938F
:10026000809100019091010101969093010180938A
:1002700000018091000190910101049734F083E026
:1002800090E090930101809300019F918F910F90D6
:100290000FBE0F901F901895BF92CF92DF92EF92F2
:1002A000FF920F931F93109203011092020150E2EC
:1002B000B52E2AE242ECD42E30E4C32E93ECE92E84
:1002C00004E086ECF82EB8E017ECF0E8A0ECE0E1F2
:1002D00061EC72E055EC31E044ECBCC0809102016D
:1002E000909103018330910509F452C08430910547
:1002F0004CF48130910541F182309105BCF5892B98
:1003000089F09FC08530910509F466C0853091055C
:100310000CF450C08630910509F470C0079709F0BD
:1003200090C07EC03BBB822F8A95F1F786B1806C6E
:1003300086B9349BFECF84B195B190930701809329
:1003400006011BBA47B97DC0EBBB822F8A95F1F736
:1003500086B1806C86B9349BFECF84B195B1909301
:100360000F0180930E011BBA67B96BC07BBB822F54
:100370008A95F1F786B1806C86B9349BFECF84B143
:1003800095B190930901809308011BBA57B959C0E0
:10039000BBBA822F8A95F1F786B1806C86B9349BFF
:1003A000FECF84B195B190931101809310011BBAD7
:1003B000D7B847C00BBB822F8A95F1F786B1806C06
:1003C00086B9349BFECF84B195B190930B01809395
:1003D0000A011BBAF7B835C0CBBA822F8A95F1F75C
:1003E00086B1806C86B9349BFECF84B195B1909371
:1003F0001301809312011BBAE7B823C0BBBB822F45
:100400008A95F1F786B1806C86B9349BFECF84B1B2
:1004100095B190930D0180930C011BBA17B911C0CF
:10042000FBBB822F8A95F1F786B1806C86B9349B2D
:10043000FECF84B195B190931501809314011BBA3E
:10044000A7B9809102019091030101969093030155
:1004500080930201809102019091030108970CF4AE
:100460003DCF1F910F91FF90EF90DF90CF90BF9005
:1004700008951F935D9BFECF84E48CB95D9BFECFF6
:1004800081E68CB95D9BFECF84E78CB95D9BFECF86
:1004900089E08CB9109203011092020119E018C092
:1004A000E0910201F0910301EE0FFF1FEA5FFE4FA2
:1004B000808191810E94AD005D9BFECF1CB980912F
:1004C0000201909103010196909303018093020130
:1004D0008091020190910301089714F35D9BFECF78
:1004E0008AE08CB95D9BFECF8DE08CB95D9BFECF21
:1004F0008AE08CB95D9BFECF8DE08CB91F91089589
:100500001F920F920FB60F920BB60F9211242F93DA
:100510003F934F935F936F937F938F939F93AF938B
:10052000BF93EF93FF93F8948091000190910101A4
:100530008130910571F0823091051CF4892B39F0DE
:1005400013C08230910561F0039771F40BC015BAA6
:100550000BC081E085BB0E944C010E94390204C09F
:1005600082E001C083E085BB7894FF91EF91BF9159
:10057000AF919F918F917F916F915F914F913F913B
:100580002F910F900BBE0F900FBE0F901F901895DC
:10059000AA1BBB1B51E107C0AA1FBB1FA617B707A9
:1005A00010F0A61BB70B881F991F5A95A9F78095C5
:1005B0009095BC01CD01089597FB092E05260ED01C
:1005C00057FD04D014D00AD0001C38F45095409543
:1005D000309521953F4F4F4F5F4F0895F6F7909517
:1005E0008095709561957F4F8F4F9F4F0895A1E241
:1005F0001A2EAA1BBB1BFD010DC0AA1FBB1FEE1F9D
:10060000FF1FA217B307E407F50720F0A21BB30BE7
:10061000E40BF50B661F771F881F991F1A9469F763
:1006200060957095809590959B01AC01BD01CF01BF
:060630000895F894FFCFCD
:00000001FF
