:100000000C9446000C945D000C945D000C945D0013
:100010000C945D000C945D000C945D000C945D00EC
:100020000C945D000C945D000C945D000C945D00DC
:100030000C945D000C945D000C945D000C945D00CC
:100040000C945D000C945D000C945D000C945D00BC
:100050000C945D000C945D000C945D000C945D00AC
:100060000C945D000C945D000C945D000C945D009C
:100070000C945D000C945D000C945D000C945D008C
:100080000C945D000C945D000C945D0011241FBE67
:10009000CFEFD0E1DEBFCDBF12E0A0E0B1E0E6EAF5
:1000A000F9E000E00BBF02C007900D92A031B1074C
:1000B000D9F70E9429010C94D1040C94000080EF20
:1000C00087BB8FE683BF8FEF82BF11BE08958DEF90
:1000D0008093610082EC87B987EA86B9089520E0B1
:1000E00038EDC9010197F1F7E5E6F0E094E090837F
:1000F00068E36BBB80818927808349E955E1DA0198
:100100001197F1F7D9011197F1F790836BBB8081BB
:1001100089278083DA011197F1F7D9011197F1F757
:1001200090836BBB808189278083DA011197F1F777
:1001300090839BBB808189278083DA011197F1F737
:1001400090838CE08BBB808189278083DA011197B3
:10015000F1F7908381E08BBB808189278083CA017E
:100160000197F1F70895E5E6F0E094E090838BBB0A
:1001700080818927808389E995E10197F1F70895C6
:10018000E5E6F0E095E090838BBB808194E08927E1
:10019000808389E995E10197F1F70895FB0194E0E7
:1001A000909365008BBB80916500892780936500E3
:1001B00089E995E10197F1F755E044E029E935E156
:1001C0000CC0509365008BBB8091650084278093A1
:1001D0006500C9010197F1F731968081882389F77D
:1001E000089560E070E040E050E0ECECFAE086B1A9
:1001F000806C86B9349BFECF94B185B1382F20E056
:10020000D901A90FB11D4A0F5B1FCF010197F1F76B
:100210006F5F7F4F6032710551F785E055954795C7
:100220008A95E1F7BA01882777FD8095982F0E947B
:10023000250220E030E040E250E40E9479010E9473
:100240008302DC01CB016AE070E00E947304CB0101
:100250000895EF92FF920F931F93CF93DF931FEFB9
:100260001ABB80EC84BB11BB1093640012BA8DEFF3
:100270008093610082EC87B987EA86B90E946F009B
:1002800080EF87BB8FE683BF12BF11BE24E0F22E42
:1002900095E0E92EC9E9D5E1F2BA0E94F1008C019E
:1002A00080E860E071E00E94CE00C8016AE070E082
:1002B0000E947304605D7F4FE09265006BBB80918C
:1002C00065008F2580936500CE010197F1F7C80185
:1002D0006AE070E00E947304C096E09265008BBBF8
:1002E000809165008F2580936500CE010197F1F71D
:1002F000D3CFA8E1B0E0EFE7F1E00C94A20469836A
:100300007A838B839C832D833E834F835887B9E008
:10031000EB2EF12CEC0EFD1ECE010196B7010E94D2
:10032000FB038E010F5E1F4FCE010596B8010E94A0
:10033000FB032985223008F47EC03989323010F45D
:10034000B8017CC08A859A8989278A87243011F070
:10035000223031F4231709F06EC068E071E06EC0FE
:10036000343039F41D861E861F86188A1C861B862B
:1003700004C0323021F484E08987B7015FC02B8547
:100380003C858B899C89281B390B3C872B87ED8406
:10039000FE840F851889AD88BE88CF88D88CEA1472
:1003A000FB040C051D0540F4EE0CFF1C001F111F83
:1003B000215030403C872B8720E030E040E050E087
:1003C00080E090E0A0E0B0E460E070E0EA14FB04BC
:1003D0000C051D0540F0282B392B4A2B5B2BEA1806
:1003E000FB080C091D09B695A79597958795EE0C06
:1003F000FF1C001F111F6F5F7F4F6F31710531F7B9
:10040000DA01C9018F779070A070B07080349105C7
:10041000A105B10561F427FD0AC0E114F10401054D
:10042000110529F0205C3F4F4F4F5F4F20782D87FB
:100430003E874F87588BBE01675F7F4FCB010E947D
:1004400026036896EAE00C94BE04A8E0B0E0EBE274
:10045000F2E00C94A3049B01AC0183E08983DA01F0
:10046000C9018827B7FD83959927AA27BB27B82EEE
:10047000211531054105510519F482E089833AC0FF
:100480008823A9F0203080E0380780E0480780E822
:10049000580729F460E070E080E09FEC30C0EE2463
:1004A000FF248701E21AF30A040B150B02C079013D
:1004B0008A018EE1C82ED12CDC82CB82ED82FE82B5
:1004C0000F831887C801B7010E94D7020197181639
:1004D000190684F4082E04C0EE0CFF1C001F111F27
:1004E0000A94D2F7ED82FE820F831887C81AD90AC0
:1004F000DC82CB82BA82CE0101960E942603289626
:10050000E9E00C94BF04ACE0B0E0E9E8F2E00C9460
:10051000AA0469837A838B839C83CE010196BE01F2
:100520006B5F7F4F0E94FB038D81823061F18230CF
:1005300050F1843021F48E81882351F12EC02F8117
:10054000388537FD20C06E812F3131051CF06623C0
:10055000F9F023C08EE190E0821B930B29853A8548
:100560004B855C8504C056954795379527958A95A8
:10057000D2F76623B1F050954095309521953F4FC5
:100580004F4F5F4F0EC020E030E040E050E009C028
:100590002FEF3FEF4FEF5FE704C020E030E040E097
:1005A00050E8B901CA012C96E2E00C94C604EF921F
:1005B000FF920F931F937B018C0180E0E81680E08F
:1005C000F80681E0080780E0180788F48FEFE81646
:1005D000F1040105110531F028F088E090E0A0E079
:1005E000B0E017C080E090E0A0E0B0E012C080E092
:1005F000E81680E0F80680E0080781E0180728F098
:1006000088E190E0A0E0B0E004C080E190E0A0E0EC
:10061000B0E020E230E040E050E0281B390B4A0B0C
:100620005B0B04C016950795F794E7948A95D2F76B
:10063000F701E05FFE4F8081281B31094109510914
:10064000C9011F910F91FF90EF900895DF92EF92F3
:10065000FF920F931F93FC01E480F58006811781C0
:10066000D1808081823048F480E090E0A0E1B0E069
:10067000E82AF92A0A2B1B2BA5C0843009F49FC055
:10068000823021F4EE24FF24870105C0E114F10437
:100690000105110519F4E0E0F0E096C06281738174
:1006A0009FEF623879070CF05BC022E83FEF261B12
:1006B000370B2A3131052CF020E030E040E050E0EB
:1006C0002AC0B801A701022E04C0769567955795F8
:1006D00047950A94D2F781E090E0A0E0B0E004C032
:1006E000880F991FAA1FBB1F2A95D2F70197A1094E
:1006F000B1098E219F21A023B1230097A105B10547
:1007000021F081E090E0A0E0B0E09A01AB01282B5D
:10071000392B4A2B5B2BDA01C9018F779070A070BF
:10072000B07080349105A105B10539F427FF09C0E7
:10073000205C3F4F4F4F5F4F04C0215C3F4F4F4FF6
:100740005F4FE0E0F0E02030A0E03A07A0E04A0789
:10075000A0E45A0710F0E1E0F0E079018A0127C037
:100760006038710564F5FB01E158FF4FD801C701FE
:100770008F779070A070B07080349105A105B1059D
:1007800039F4E7FE0DC080E490E0A0E0B0E004C0E2
:100790008FE390E0A0E0B0E0E80EF91E0A1F1B1FF7
:1007A00017FF05C016950795F794E794319687E0F3
:1007B00016950795F794E7948A95D1F705C0EE242E
:1007C000FF248701EFEFF0E06E2F679566276795AE
:1007D000902F9F77D794DD24D7948E2F8695492F1D
:1007E000462B582F5D29B701CA011F910F91FF9029
:1007F000EF90DF900895FC01DB014081518122815F
:10080000622F6F7770E0221F2227221F9381892F8A
:10081000880F822B282F30E0991F9927991F119656
:100820009C93119721153105A9F5411551056105D5
:10083000710511F482E037C082E89FEF13969C9314
:100840008E9312979A01AB0167E0220F331F441F6A
:10085000551F6A95D1F783E08C930DC0220F331F8B
:10086000441F551F12968D919C91139701971396D3
:100870009C938E931297203080E0380780E04807E1
:1008800080E4580758F314962D933D934D935C9351
:10089000179708952F3F310579F4411551056105EA
:1008A000710519F484E08C93089564FF03C081E01E
:1008B0008C9312C01C9210C02F57304013963C935B
:1008C0002E93129783E08C9387E0440F551F661F89
:1008D000771F8A95D1F7706414964D935D936D934D
:1008E0007C931797089597FB092E07260AD077FD6A
:1008F00004D00CD006D000201AF4709561957F4F7B
:100900000895F6F7909581959F4F0895AA1BBB1BFC
:1009100051E107C0AA1FBB1FA617B70710F0A61BFF
:10092000B70B881F991F5A95A9F780959095BC0120
:10093000CD0108952F923F924F925F926F927F92D6
:100940008F929F92AF92BF92CF92DF92EF92FF92DF
:100950000F931F93CF93DF93CDB7DEB7CA1BDB0B8B
:100960000FB6F894DEBF0FBECDBF09942A88398830
:1009700048885F846E847D848C849B84AA84B98437
:10098000C884DF80EE80FD800C811B81AA81B98143
:10099000CE0FD11D0FB6F894DEBF0FBECDBFED0157
:0609A0000895F894FFCF5A
:1009A60069722069732E2E0000000000000000000E
:1009B6000001020203030303040404040404040400
:1009C60005050505050505050505050505050505D1
:1009D60006060606060606060606060606060606B1
:1009E60006060606060606060606060606060606A1
:1009F6000707070707070707070707070707070781
:100A06000707070707070707070707070707070770
:100A16000707070707070707070707070707070760
:100A26000707070707070707070707070707070750
:100A36000808080808080808080808080808080830
:100A46000808080808080808080808080808080820
:100A56000808080808080808080808080808080810
:100A66000808080808080808080808080808080800
:100A760008080808080808080808080808080808F0
:100A860008080808080808080808080808080808E0
:100A960008080808080808080808080808080808D0
:100AA60008080808080808080808080808080808C0
:00000001FF
