:100000000C9446000C9465000C9465000C946500FB
:100010000C9465000C9465000C9465000C946500CC
:100020000C9465000C9465000C9465000C946500BC
:100030000C9465000C9465000C9465000C946500AC
:100040000C9465000C9465000C9465000C9465009C
:100050000C9465000C9465000C9465000C9465008C
:100060000C9465000C9465000C9465000C9465007C
:100070000C9465000C9489020C9465000C94650046
:100080000C9465000C9465000C94650011241FBE4F
:10009000CFEFD0E1DEBFCDBF11E0A0E0B1E0ECEBEF
:1000A000F5E000E00BBF02C007900D92A031B10750
:1000B000D9F711E0A0E1B1E001C01D92A637B10768
:1000C000E1F70E94AE000C94DC020C9400008FEF6C
:1000D0008ABB87BB87E084BB11BA8EE082B91092DD
:1000E00061001BBA18BA15BA089582E080936A00BD
:1000F00081E089BF089582E080938B008AE180933C
:100100008A0084E080937D0080E49CE990938100E4
:1001100080938000089582EA8FBD8AE08EBD8FEFC4
:100120009FEF97BD86BD1BBC1ABC19BC18BC0895B7
:100130001092900088E089B988E18AB986E08093BE
:100140009500089517B887E886B908955D9BFECF9E
:100150008CB908955F9BFECF8CB108950E94670013
:1001600022E020938B008AE180938A0084E08093D0
:100170007D0080E49CE9909381008093800020932F
:100180006A0081E089BF17B887E886B910929000AD
:1001900088E089B988E18AB986E0809395007894EF
:1001A000FFCFBF92CF92DF92EF92FF920F931F93F8
:1001B000109213011092120150E2B52E25E342EC89
:1001C000D42E30E4C32E93ECE92E04E086ECF82E16
:1001D000B8E017ECF0E8A0ECE0E161EC72E055EC7F
:1001E00031E044ECBCC08091120190911301833046
:1001F000910509F452C0843091054CF48130910589
:1002000041F182309105BCF5892B89F09FC0853082
:10021000910509F466C0853091050CF450C0863014
:10022000910509F470C0079709F090C07EC03BBBF0
:10023000822F8A95F1F786B1806C86B9349BFECF08
:1002400084B195B190931F0180931E011BBA47B9E9
:100250007DC0EBBB822F8A95F1F786B1806C86B9A1
:10026000349BFECF84B195B19093270180932601F2
:100270001BBA67B96BC07BBB822F8A95F1F786B139
:10028000806C86B9349BFECF84B195B190932101E7
:10029000809320011BBA57B959C0BBBA822F8A95E7
:1002A000F1F786B1806C86B9349BFECF84B195B1ED
:1002B00090932901809328011BBAD7B847C00BBB84
:1002C000822F8A95F1F786B1806C86B9349BFECF78
:1002D00084B195B190932301809322011BBAF7B8A2
:1002E00035C0CBBA822F8A95F1F786B1806C86B97A
:1002F000349BFECF84B195B190932B0180932A015A
:100300001BBAE7B823C0BBBB822F8A95F1F786B131
:10031000806C86B9349BFECF84B195B19093250152
:10032000809324011BBA17B911C0FBBB822F8A9599
:10033000F1F786B1806C86B9349BFECF84B195B15C
:1003400090932D0180932C011BBAA7B980911201C3
:100350009091130101969093130180931201809163
:1003600012019091130108970CF43DCF1F910F914A
:10037000FF90EF90DF90CF90BF9008955D9BFECFF0
:1003800084E48CB95D9BFECF81E68CB95D9BFECF8A
:1003900084E78CB95D9BFECF81E68CB95D9BFECF77
:1003A00089E08CB9109213011092120120E239E019
:1003B0009CC08091140190911501019690931501B4
:1003C00080931401E0911201F0911301EE0FFF1FD1
:1003D000E25EFE4F8081918168EE73E00E94B5027B
:1003E000605D7F4F7093170160931601E0911201D9
:1003F000F0911301EE0FFF1FE25EFE4F80819181AD
:1004000064E670E00E94B5027093190160931801D0
:1004100080911801909119016AE070E00E94B50284
:10042000C0969093190180931801E0911201F09108
:100430001301EE0FFF1FE25EFE4F808191816AE0A3
:1004400070E00E94B50270931B0160931A018091C5
:100450001A0190911B016AE070E00E94B502C096FB
:1004600090931B0180931A01E0911201F091130106
:10047000EE0FFF1FE25EFE4F808191816AE070E027
:100480000E94B502C09690931D0180931C0180913B
:100490001601909117015D9BFECF8CB980911801D8
:1004A000909119015D9BFECF8CB980911A019091BA
:1004B0001B015D9BFECF8CB980911C0190911D01A9
:1004C0005D9BFECF8CB95D9BFECF2CB95D9BFECFB3
:1004D0002CB95D9BFECF3CB9809112019091130124
:1004E00001969093130180931201809112019091D3
:1004F000130108970CF45DCF5D9BFECF8AE08CB9A9
:100500005D9BFECF8DE08CB9109215011092140105
:1005100008951F920F920FB60F920BB60F921124EF
:100520002F933F934F935F936F937F938F939F93FB
:10053000AF93BF93EF93FF93F8940E94D1000E9472
:10054000BE017894FF91EF91BF91AF919F918F91F0
:100550007F916F915F914F913F912F910F900BBEC3
:100560000F900FBE0F901F90189597FB092E07262E
:100570000AD077FD04D00CD006D000201AF4709574
:1005800061957F4F0895F6F7909581959F4F089557
:10059000AA1BBB1B51E107C0AA1FBB1FA617B707A9
:1005A00010F0A61BB70B881F991F5A95A9F78095C5
:0C05B0009095BC01CD010895F894FFCF98
:1005BC00FF0300000000000000000000000000002D
:00000001FF
