:100000000C9446000C9428010C9465000C94650037
:100010000C9465000C9465000C9465000C946500CC
:100020000C9465000C9465000C9465000C946500BC
:100030000C9465000C9465000C9465000C946500AC
:100040000C9465000C9465000C9465000C9465009C
:100050000C9465000C9465000C9465000C9465008C
:100060000C9465000C9465000C9465000C9465007C
:100070000C9465000C94F6040C9465000C946500D7
:100080000C9465000C9465000C94650011241FBE4F
:10009000CFEFD0E1DEBFCDBF12E0A0E0B1E0E4E6FB
:1000A000F8E100E00BBF02C007900D92A832B10743
:1000B000D9F712E0A8E2B2E001C01D92A237B10761
:1000C000E1F70E94F8000C94300C0C9400008FEFC4
:1000D0008ABB87BB87E084BB11BA8EE082B91092DD
:1000E00061001BBA18BA15BA089582E080936A00BD
:1000F00081E089BF089582E080938B008BE180933B
:100100008A0084E080937D0080E49CE990938100E4
:1001100080938000089582EA8FBD89E18EBD80E8DA
:100120009EE397BD86BD1BBC1ABC19BC18BC0895C4
:100130001092900088E089B988E18AB986E08093BE
:100140009500089580EC87B980E886B908955D9B95
:10015000FECF8CB908955F9BFECF8CB10895CF93ED
:10016000DF93EC015D9BFECFBE0180E090E020EAD2
:1001700036E841E050E00E94BC0B20E137E240E06D
:1001800050E00E94BC0B205D2CB95D9BFECFCE01E0
:1001900060E177E20E94950B68EE73E00E94950B98
:1001A000605D6CB95D9BFECFCE0168EE73E00E948E
:1001B000950B64E670E00E94950B605D6CB95D9BE9
:1001C000FECFCE0164E670E00E94950B6AE070E01D
:1001D0000E94950B605D6CB95D9BFECFCE016AE01D
:1001E00070E00E94950B805D8CB9DF91CF910895EE
:1001F0000E94670022E020938B008BE180938A00AD
:1002000084E080937D0080E49CE99093810080935A
:10021000800020936A0081E089BF80EC87B980E884
:1002200086B91092900088E089B988E18AB986E0A1
:100230008093950082EA8FBD89E18EBD80E89EE3C0
:1002400097BD86BD1BBC1ABC19BC18BC7894FFCFE7
:100250001F920F920FB60F9211248F939F9380914C
:1002600028029091290201969093290280932802F6
:100270008091280290912902049734F083E090E065
:1002800090932902809328029F918F910F900FBE27
:100290000F901F901895BF92CF92DF92EF92FF922E
:1002A0000F931F9310922B0210922A0250E2B52E48
:1002B0002AE242ECD42E30E4C32E93ECE92E04E083
:1002C00086ECF82EB8E017ECF0E8A0ECE0E161EC89
:1002D00072E055EC31E044ECBCC080912A02909170
:1002E0002B028330910509F452C0843091054CF4FF
:1002F0008130910541F182309105BCF5892B89F05F
:100300009FC08530910509F466C0853091050CF4D5
:1003100050C08630910509F470C0079709F090C06D
:100320007EC03BBB822F8A95F1F786B1806C86B97F
:10033000349BFECF84B195B190932F0280932E020F
:100340001BBA47B97DC0EBBB822F8A95F1F786B106
:10035000806C86B9349BFECF84B195B190933702FF
:10036000809336021BBA67B96BC07BBB822F8A951C
:10037000F1F786B1806C86B9349BFECF84B195B11C
:1003800090933102809330021BBA57B959C0BBBA5F
:10039000822F8A95F1F786B1806C86B9349BFECFA7
:1003A00084B195B190933902809338021BBAD7B8C3
:1003B00047C00BBB822F8A95F1F786B1806C86B956
:1003C000349BFECF84B195B1909333028093320277
:1003D0001BBAF7B835C0CBBA822F8A95F1F786B130
:1003E000806C86B9349BFECF84B195B190933B026B
:1003F00080933A021BBAE7B823C0BBBB822F8A9511
:10040000F1F786B1806C86B9349BFECF84B195B18B
:1004100090933502809334021BBA17B911C0FBBB0D
:10042000822F8A95F1F786B1806C86B9349BFECF16
:1004300084B195B190933D0280933C021BBAA7B959
:1004400080912A0290912B02019690932B02809327
:100450002A0280912A0290912B0208970CF43DCF3A
:100460001F910F91FF90EF90DF90CF90BF90089574
:1004700010922B0210922A025FC0E0912A02F091A2
:100480002B02EE0FFF1FE25CFD4F20813181E091D6
:100490002A02F0912B02EE0FFF1FE25DFD4F8081DB
:1004A000918128173907A4F4E0912A02F0912B02D8
:1004B000A0912A02B0912B02AA0FBB1FA25DBD4FD3
:1004C0008D919C91EE0FFF1FE25CFD4F9183808325
:1004D000E0912A02F0912B02EE0FFF1FE050FF4F38
:1004E00020813181E0912A02F0912B02EE0FFF1F53
:1004F000E25DFD4F8081918182179307A4F4E09122
:100500002A02F0912B02A0912A02B0912B02AA0F8D
:10051000BB1FA25DBD4F8D919C91EE0FFF1FE05060
:10052000FF4F9183808380912A0290912B02019644
:1005300090932B0280932A0280912A0290912B02A1
:1005400008970CF49ACF08956F927F928F929F92A2
:10055000AF92BF92CF92DF92EF92FF920F931F93D1
:1005600010922B0210922A027EC0E0912A02F09192
:100570002B02EE0FFF1FE25CFD4F60817181E09165
:100580002A02F0912B02EE0FFF1FE25DFD4F20814A
:100590003181E0912A02F0912B02EE0FFF1FE25C05
:1005A000FD4FE080F180E0912A02F0912B02EE0FE6
:1005B000FF1FE050FF4F6080718080902A02909072
:1005C0002B02621B730B882777FD8095982F0E9462
:1005D000EE0820E030E048EC52E40E94E8065B01BF
:1005E0006C01E618F7080027F7FC0095102FC801EA
:1005F000B7010E94EE089B01AC01C601B5010E9443
:10060000E2070E944C09880C991C2EE432E0820E0D
:10061000931EF4017183608380912A0290912B02D2
:100620000597C1F4809158029091590205979093D3
:10063000590280935802809158029091590297FF75
:1006400009C08091580290915902059690935902E1
:100650008093580280912A0290912B0201969093E8
:100660002B0280932A0280912A0290912B020897F4
:100670000CF47BCF1F910F91FF90EF90DF90CF9004
:10068000BF90AF909F908F907F906F900895DF9371
:10069000CF93CDB7DEB760970FB6F894DEBF0FBE2D
:1006A000CDBFDE011196E0E1F1E080E101900D9215
:1006B0008150E1F710922B0210922A02AE014F5F97
:1006C0005F4F30C0A0912A02B0912B02E0912A0224
:1006D000F0912B02EE0FFF1FE25BFD4F2081318175
:1006E000E0912A02F0912B02EE0FFF1FE40FF51F9D
:1006F00080819181BC01269FC001279F900D369F6C
:10070000900D1124AA0FBB1FA25ABD4F11969C93A6
:100710008E9380912A0290912B02019690932B0246
:1007200080932A0280912A0290912B02089754F21A
:1007300060960FB6F894DEBF0FBECDBFCF91DF91AC
:10074000089510922B0210922A0260E070E024C0FB
:10075000E0912A02F0912B02EE0FFF1FE25BFD4FAA
:10076000808191818634910574F080912A02909164
:100770002B02039741F080912A0290912B0204975B
:1007800011F06F5F7F4F80912A0290912B020196AA
:1007900090932B0280932A0280912A0290912B023F
:1007A0000897B4F210922B0210922A0220E030E057
:1007B00015C0E0912A02F0912B02EE0FFF1FE25AC2
:1007C000FD4F80819181280F391F80912A029091DD
:1007D0002B02019690932B0280932A0280912A0289
:1007E00090912B0208972CF36115710569F480E054
:1007F00090E0A0E0B0E080936E0290936F02A0932F
:100800007002B09371020895C9010E94A90B882754
:1008100077FD8095982F0E94EE0860936E0270938A
:100820006F02809370029093710208959C018CE393
:100830002D3838071CF020E83EE306C083EC24374F
:10084000380714F420E831EC8CE36D3878071CF09D
:1008500060E87EE306C083EC6437780714F460E850
:1008600071EC1216130624F4AA9A3BBD2ABD0AC0E5
:100870002115310539F0AA9888279927821B930BF7
:100880009BBD8ABD1616170624F4AB9879BD68BDCA
:1008900008956115710539F0AB9A88279927861B51
:1008A000970B99BD88BD0895AF92BF92CF92DF920A
:1008B000EF92FF920F931F9360916E0270916F02FF
:1008C000809170029091710220E030E040E050E0B1
:1008D0000E948E08181684F060916E0270916F026B
:1008E000809170029091710220E030E040E050E091
:1008F0000E94BE08882354F560916E0270916F02C9
:100900008091700290917102A0906E02B0906F027F
:10091000C0907002D090710220E030E04AEF55E4C0
:100920000E94BB060E944C097B018C0160E070E0D4
:100930008AEF95E4A60195010E948A060E944C095F
:100940009B01AC01C701B9010E9416041F910F91D0
:10095000FF90EF90DF90CF90BF90AF9008951F93DE
:100960005D9BFECF84E48CB95D9BFECF81E68CB9A4
:100970005D9BFECF84E78CB95D9BFECF89E08CB98F
:1009800010922B0210922A0219E018C0E0912A025C
:10099000F0912B02EE0FFF1FE25DFD4F80819181F0
:1009A0000E94AF005D9BFECF1CB980912A029091FE
:1009B0002B02019690932B0280932A0280912A02A7
:1009C00090912B02089714F35D9BFECF8AE08CB9BF
:1009D0005D9BFECF8DE08CB95D9BFECF8AE08CB92C
:1009E0005D9BFECF8DE08CB91F9108951F920F92F1
:1009F0000FB60F920BB60F9211242F933F934F9384
:100A00005F936F937F938F939F93AF93BF93EF9376
:100A1000FF93F894809128029091290281309105EA
:100A200071F0823091051CF4892B39F013C08230AB
:100A3000910561F0039771F40BC015BA0BC081E00A
:100A400085BB0E944B010E94AF0404C082E001C03C
:100A500083E085BB7894FF91EF91BF91AF919F9117
:100A60008F917F916F915F914F913F912F910F9057
:100A70000BBE0F900FBE0F901F901895A0E0B0E036
:100A8000E4E4F5E00C94F90BDC012B01FA019C91F4
:100A9000923008F439C1EB018881823008F433C107
:100AA000943069F4843009F02FC111969C9111970C
:100AB0008981981709F428C1A0E2B1E025C18430EA
:100AC00009F421C18230A9F4923009F01DC19A01C4
:100AD000AD0188E0EA010990AE01E90109929E01A9
:100AE0008150C1F7E201898111969C91892381830C
:100AF00008C1923009F407C112962D903C901397CB
:100B0000EB018A819B811496AD90BD90CD90DC90D5
:100B10001797EC80FD800E811F819101281B390BF6
:100B2000B90137FF04C066277727621B730B603259
:100B300071050CF061C0121613066CF537014801FF
:100B4000062E04C096948794779467940A94D2F7FB
:100B500021E030E040E050E004C0220F331F441F8A
:100B6000551F6A95D2F721503040404050402E2109
:100B70003F2140235123211531054105510521F025
:100B800021E030E040E050E079018A01E628F728D2
:100B9000082919293CC0232BD1F1260E371E350117
:100BA0004601062E04C096948794779467940A941D
:100BB000D2F721E030E040E050E004C0220F331FC4
:100BC000441F551F6A95D2F7215030404040504095
:100BD0002A213B214C215D2121153105410551057B
:100BE00021F021E030E040E050E059016A01A62800
:100BF000B728C828D9280BC0821593052CF01C01F2
:100C0000AA24BB24650103C0EE24FF2487011196AA
:100C10009C91D20111968C91981709F445C09923A3
:100C200039F0A80197012A193B094C095D0906C052
:100C3000A60195012E193F09400B510B57FD08C025
:100C400011823382228224833583468357831DC0D9
:100C500081E081833382228288279927DC01821BED
:100C6000930BA40BB50B84839583A683B7830DC028
:100C7000220F331F441F551F248335834683578318
:100C80008281938101979383828324813581468178
:100C90005781DA01C9010197A109B1098F5F9F4FFF
:100CA000AF4FBF4328F30BC0918333822282EA0CFB
:100CB000FB1C0C1D1D1DE482F5820683178383E057
:100CC0008083248135814681578157FF1AC0C9012D
:100CD000AA2797FDA095BA2F81709070A070B07070
:100CE0005695479537952795822B932BA42BB52B9B
:100CF00084839583A683B7838281938101969383AE
:100D00008283DF0101C0D201CD01CDB7DEB7E2E1C0
:100D10000C94150CA0E2B0E0E0E9F6E00C94050CB0
:100D200069837A838B839C832D833E834F8358878B
:100D3000E9E0EE2EF12CEC0EFD1ECE010196B7017E
:100D40000E94C40A8E010F5E1F4FCE010596B801A6
:100D50000E94C40A8A8991E089278A8BC701B80159
:100D6000AE01475E5F4F0E943E050E94EF09A096CC
:100D7000E6E00C94210CA0E2B0E0E1ECF6E00C948B
:100D8000050C69837A838B839C832D833E834F83F9
:100D90005887F9E0EF2EF12CEC0EFD1ECE010196E6
:100DA000B7010E94C40A8E010F5E1F4FCE01059647
:100DB000B8010E94C40AC701B801AE01475E5F4F87
:100DC0000E943E050E94EF09A096E6E00C94210CDB
:100DD000A0E2B0E0EEEEF6E00C94F90B69837A83C2
:100DE0008B839C832D833E834F835887CE0101964E
:100DF000BE01675F7F4F0E94C40ACE010596BE0107
:100E00006F5E7F4F0E94C40A9985923088F089896D
:100E10008230C8F0943019F4823051F404C0843028
:100E200029F4923081F480E291E0C6C0923049F416
:100E300020E09A858A89981321E02A87CE010996B5
:100E4000BBC0823049F420E09A858A89981321E05A
:100E50002A8BCE014196B0C02D843E844F845888A1
:100E60006D887E888F88988CEE24FF248701AA24C1
:100E7000BB24650140E050E060E070E0E0E0F0E0BD
:100E8000C10181709070892BE9F0E60CF71C081DF8
:100E9000191D9A01AB012A0D3B1D4C1D5D1D80E003
:100EA00090E0A0E0B0E0E614F7040805190520F48E
:100EB00081E090E0A0E0B0E0BA01A901480F591F1D
:100EC0006A1F7B1FAA0CBB1CCC1CDD1C97FE08C034
:100ED00081E090E0A0E0B0E0A82AB92ACA2ADB2A83
:100EE0003196E032F10549F0660C771C881C991C9C
:100EF0005694479437942794C3CFFA85EA892B896F
:100F00003C898B859C85280F391F2E5F3F4F17C06A
:100F1000CA0181709070892B61F016950795F7943E
:100F2000E79480E090E0A0E0B0E8E82AF92A0A2BF4
:100F30001B2B76956795579547952F5F3F4F77FD0C
:100F4000E7CF0CC0440F551F661F771F17FD416088
:100F5000EE0CFF1C001F111F21503040403090E06C
:100F6000590790E0690790E4790760F32B8F3C8F75
:100F7000DB01CA018F779070A070B070803491054A
:100F8000A105B10561F447FD0AC0E114F1040105B2
:100F9000110529F0405C5F4F6F4F7F4F40781A8EEC
:100FA000FE1711F081E08A8F4D8F5E8F6F8F78A3CF
:100FB00083E0898FCE0149960E94EF09A096E2E175
:100FC0000C94150CA8E1B0E0E8EEF7E00C94010CED
:100FD00069837A838B839C832D833E834F835887D9
:100FE000B9E0EB2EF12CEC0EFD1ECE010196B701FF
:100FF0000E94C40A8E010F5E1F4FCE010596B801F4
:101000000E94C40A2985223008F47EC03989323012
:1010100010F4B8017CC08A859A8989278A87243090
:1010200011F0223031F4231709F06EC060E271E054
:101030006EC0343039F41D861E861F86188A1C86C1
:101040001B8604C0323021F484E08987B7015FC079
:101050002B853C858B899C89281B390B3C872B87EA
:10106000ED84FE840F851889AD88BE88CF88D88C22
:10107000EA14FB040C051D0540F4EE0CFF1C001FD8
:10108000111F215030403C872B8720E030E040E0AA
:1010900050E080E090E0A0E0B0E460E070E0EA14AE
:1010A000FB040C051D0540F0282B392B4A2B5B2B2C
:1010B000EA18FB080C091D09B695A7959795879521
:1010C000EE0CFF1C001F111F6F5F7F4F6F3171050A
:1010D00031F7DA01C9018F779070A070B070803459
:1010E0009105A105B10561F427FD0AC0E114F104E1
:1010F0000105110529F0205C3F4F4F4F5F4F2078CD
:101100002D873E874F87588BBE01675F7F4FCB018E
:101110000E94EF096896EAE00C941D0CA8E1B0E08B
:10112000E4E9F8E00C94050C69837A838B839C8353
:101130002D833E834F83588789E0E82EF12CEC0EF7
:10114000FD1ECE010196B7010E94C40A8E010F5EFA
:101150001F4FCE010596B8010E94C40A89858230CE
:1011600040F08989823028F0C701B8010E943C0B09
:1011700001C08FEF6896E6E00C94210CA8E1B0E086
:10118000E4ECF8E00C94050C69837A838B839C83F0
:101190002D833E834F83588789E0E82EF12CEC0E97
:1011A000FD1ECE010196B7010E94C40A8E010F5E9A
:1011B0001F4FCE010596B8010E94C40A898582306E
:1011C00040F08989823028F0C701B8010E943C0BA9
:1011D00001C081E06896E6E00C94210CA8E0B0E044
:1011E000E4EFF8E00C94020C9B01AC0183E08983EE
:1011F000DA01C9018827B7FD83959927AA27BB275C
:10120000B82E211531054105510519F482E0898375
:101210003AC08823A9F0203080E0380780E04807F2
:1012200080E8580729F460E070E080E09FEC30C06F
:10123000EE24FF248701E21AF30A040B150B02C007
:1012400079018A018EE1C82ED12CDC82CB82ED821D
:10125000FE820F831887C801B7010E94A009019779
:101260001816190684F4082E04C0EE0CFF1C001F8B
:10127000111F0A94D2F7ED82FE820F831887C81AD5
:10128000D90ADC82CB82BA82CE0101960E94EF0994
:101290002896E9E00C941E0CACE0B0E0E2E5F9E041
:1012A0000C94090C69837A838B839C83CE0101960D
:1012B000BE016B5F7F4F0E94C40A8D81823061F155
:1012C000823050F1843021F48E81882351F12EC078
:1012D0002F81388537FD20C06E812F3131051CF0FC
:1012E0006623F9F023C08EE190E0821B930B2985E1
:1012F0003A854B855C8504C056954795379527956B
:101300008A95D2F76623B1F0509540953095219596
:101310003F4F4F4F5F4F0EC020E030E040E050E0C5
:1013200009C02FEF3FEF4FEF5FE704C020E030E050
:1013300040E050E8B901CA012C96E2E00C94250C7B
:10134000EF92FF920F931F937B018C0180E0E816D0
:1013500080E0F80681E0080780E0180788F48FEF46
:10136000E816F1040105110531F028F088E090E05D
:10137000A0E0B0E017C080E090E0A0E0B0E012C0D4
:1013800080E0E81680E0F80680E0080781E01807B2
:1013900028F088E190E0A0E0B0E004C080E190E0B7
:1013A000A0E0B0E020E230E040E050E0281B390B44
:1013B0004A0B5B0B04C016950795F794E7948A9542
:1013C000D2F7F701E85DFE4F8081281B3109410902
:1013D0005109C9011F910F91FF90EF900895DF927D
:1013E000EF92FF920F931F93FC01E480F58006813A
:1013F0001781D1808081823048F480E090E0A0E1C4
:10140000B0E0E82AF92A0A2B1B2BA5C0843009F486
:101410009FC0823021F4EE24FF24870105C0E1142F
:10142000F1040105110519F4E0E0F0E096C06281D5
:1014300073819FEF623879070CF05BC022E83FEFC1
:10144000261B370B2A3131052CF020E030E040E03C
:1014500050E02AC0B801A701022E04C07695679516
:10146000579547950A94D2F781E090E0A0E0B0E06C
:1014700004C0880F991FAA1FBB1F2A95D2F7019796
:10148000A109B1098E219F21A023B1230097A105B5
:10149000B10521F081E090E0A0E0B0E09A01AB015D
:1014A000282B392B4A2B5B2BDA01C9018F779070DF
:1014B000A070B07080349105A105B10539F427FF03
:1014C00009C0205C3F4F4F4F5F4F04C0215C3F4F2E
:1014D0004F4F5F4FE0E0F0E02030A0E03A07A0E09F
:1014E0004A07A0E45A0710F0E1E0F0E079018A0130
:1014F00027C06038710564F5FB01E158FF4FD80142
:10150000C7018F779070A070B07080349105A105ED
:10151000B10539F4E7FE0DC080E490E0A0E0B0E052
:1015200004C08FE390E0A0E0B0E0E80EF91E0A1FCF
:101530001B1F17FF05C016950795F794E794319682
:1015400087E016950795F794E7948A95D1F705C03B
:10155000EE24FF248701EFEFF0E06E2F67956627FA
:101560006795902F9F77D794DD24D7948E2F8695FB
:10157000492F462B582F5D29B701CA011F910F91A2
:10158000FF90EF90DF900895FC01DB0140815181D5
:101590002281622F6F7770E0221F2227221F938102
:1015A000892F880F822B282F30E0991F9927991FA8
:1015B00011969C93119721153105A9F541155105F7
:1015C0006105710511F482E037C082E89FEF139640
:1015D0009C938E9312979A01AB0167E0220F331F01
:1015E000441F551F6A95D1F783E08C930DC0220FDD
:1015F000331F441F551F12968D919C91139701978D
:1016000013969C938E931297203080E0380780E0E9
:10161000480780E4580758F314962D933D934D9353
:101620005C93179708952F3F310579F441155105C3
:101630006105710519F484E08C93089564FF03C07B
:1016400081E08C9312C01C9210C02F57304013962B
:101650003C932E93129783E08C9387E0440F551FA1
:10166000661F771F8A95D1F7706414964D935D932A
:101670006D937C93179708951F93DC01FB019C9158
:10168000923008F447C08081823008F443C094301F
:1016900051F411961C91843099F58181682F70E086
:1016A000611B71093FC0843021F0923031F48230E7
:1016B000B9F18181882389F12DC011961C91119770
:1016C0008230F1F081811817D9F412962D913C9156
:1016D0001397828193818217930794F02817390713
:1016E000BCF014968D919D910D90BC91A02D2481FC
:1016F000358146815781281739074A075B0718F457
:10170000112341F00AC082179307A407B50740F4DC
:10171000112319F061E070E005C06FEF7FEF02C0A8
:1017200060E070E0CB011F910895AA1BBB1B51E143
:1017300007C0AA1FBB1FA617B70710F0A61BB70B41
:10174000881F991F5A95A9F780959095BC01CD01E6
:10175000089597FB092E07260AD077FD04D0E5DF10
:1017600006D000201AF4709561957F4F0895F6F722
:10177000909581959F4F089597FB092E05260ED0D1
:1017800057FD04D014D00AD0001C38F45095409571
:10179000309521953F4F4F4F5F4F0895F6F7909545
:1017A0008095709561957F4F8F4F9F4F0895A1E26F
:1017B0001A2EAA1BBB1BFD010DC0AA1FBB1FEE1FCB
:1017C000FF1FA217B307E407F50720F0A21BB30B16
:1017D000E40BF50B661F771F881F991F1A9469F792
:1017E00060957095809590959B01AC01BD01CF01EE
:1017F00008952F923F924F925F926F927F928F92B5
:101800009F92AF92BF92CF92DF92EF92FF920F938F
:101810001F93CF93DF93CDB7DEB7CA1BDB0B0FB699
:10182000F894DEBF0FBECDBF09942A883988488856
:101830005F846E847D848C849B84AA84B984C884EC
:10184000DF80EE80FD800C811B81AA81B981CE0FE3
:10185000D11D0FB6F894DEBF0FBECDBFED010895C8
:04186000F894FFCF2A
:10186400FF03FF03FF03FF03FF03FF03FF03FF0364
:101874001E001400010000000000FFFFECFFE2FF67
:101884000000000000000000000102020303030343
:1018940004040404040404040505050505050505FC
:1018A40005050505050505050606060606060606DC
:1018B40006060606060606060606060606060606C4
:1018C40006060606060606060707070707070707AC
:1018D4000707070707070707070707070707070794
:1018E4000707070707070707070707070707070784
:1018F4000707070707070707070707070707070774
:10190400070707070707070708080808080808085B
:101914000808080808080808080808080808080843
:101924000808080808080808080808080808080833
:101934000808080808080808080808080808080823
:101944000808080808080808080808080808080813
:101954000808080808080808080808080808080803
:1019640008080808080808080808080808080808F3
:1019740008080808080808080808080808080808E3
:0819840008080808080808081B
:00000001FF
