:100000000C9446000C94AF000C9465000C946500B1
:100010000C9465000C9465000C9465000C946500CC
:100020000C9465000C9465000C9465000C946500BC
:100030000C9465000C9465000C9465000C946500AC
:100040000C9465000C9465000C9465000C9465009C
:100050000C9465000C9465000C9465000C9465008C
:100060000C9465000C9465000C9465000C9465007C
:100070000C9465000C94D2000C9465000C946500FF
:100080000C9465000C9465000C94650011241FBE4F
:10009000CFEFD0E1DEBFCDBF11E0A0E0B1E0E2E400
:1000A000F2E000E00BBF02C007900D92A030B10754
:1000B000D9F711E0A0E0B1E001C01D92A230B10774
:1000C000E1F70E94FD000C941F010C9400008FEFDB
:1000D0008ABB87BB8FE084BB11BA8EEF82B91092C6
:1000E00061001BBA18BA15BA089582E080936A00BD
:1000F00081E089BF089582E080938B008AE180933C
:100100008A0084E080937D0080E49CE990938100E4
:1001100080938000089583EA8FBD8FE08EBD83E0D9
:100120008DBD8FEF8CBD1BBC1ABC19BC18BC0895CB
:100130001092900088E089B988E18AB986E08093BE
:100140009500089580EC87B980EA86B908955D9B93
:10015000FECF8CB908955F9BFECF8CB108951F929E
:100160000F920FB60F9211248F939F9380910001ED
:10017000909101010196909301018093000180917B
:10018000000190910101049734F083E090E0909396
:100190000101809300019F918F910F900FBE0F90EE
:1001A0001F9018951F920F920FB60F9211248F93E4
:1001B0009F93F89480910001909101018130910505
:1001C00071F0823091051CF4892B39F00EC0823019
:1001D000910539F0039749F406C015BA06C081E0CD
:1001E00003C082E001C083E085BB78949F918F912A
:1001F0000F900FBE0F901F90189580EF87BB8FE672
:1002000083BF8FEF82BF22E020938B008AE180932F
:100210008A0084E080937D0080E49CE990938100D3
:100220008093800020936A0081E089BF0E948B0048
:10023000789480E498E081BF8ABD98BDFCCFF894A3
:02024000FFCFEE
:00000001FF
