:100000000C9446000C945D000C945D000C945D0013
:100010000C945D000C945D000C945D000C945D00EC
:100020000C945D000C945D000C945D000C945D00DC
:100030000C945D000C945D000C945D000C945D00CC
:100040000C945D000C945D000C945D000C945D00BC
:100050000C945D000C945D000C945D000C945D00AC
:100060000C945D000C945D000C945D000C945D009C
:100070000C945D000C945D000C945D000C945D008C
:100080000C945D000C945D000C945D0011241FBE67
:10009000CFEFD0E1DEBFCDBF11E0A0E0B1E0EAE1FB
:1000A000F1E000E00BBF02C007900D92A030B10755
:1000B000D9F70E945F000C948B000C94000080EF35
:1000C00087BB8FE683BF9FEF92BF11BE80EC84BBDE
:1000D00091BB8FE385BB12BA54E040E13FEF28E0CB
:1000E00090E483B38E3319F452BB11BEFACF83B3BD
:1000F0008D3319F422BB91BFF4CF83B38B3389F7CF
:1001000042BB31BFEECF80EF87BB8FE683BF8FEF5F
:0A01100082BF11BE0895F894FFCFDE
:00000001FF
