:100000000C9446000C941E010C9465000C94650041
:100010000C9465000C9441010C9467010C948D01C3
:100020000C94B3010C9465000C9465000C9465006D
:100030000C9465000C9465000C9465000C946500AC
:100040000C9465000C9465000C9465000C9465009C
:100050000C9465000C9465000C9465000C9465008C
:100060000C9465000C9465000C9465000C9465007C
:100070000C9465000C94AB040C9465000C94650022
:100080000C9465000C9465000C94650011241FBE4F
:10009000CFEFD0E1DEBFCDBF12E0A0E0B1E0E6E3FC
:1000A000F2E200E00BBF02C007900D92AC33B10743
:1000B000D9F712E0ACE3B2E001C01D92AE3BB1074C
:1000C000E1F70E94F8000C9419110C9400008FEFD6
:1000D0008ABB87BB87E084BB11BA8EE082B91092DD
:1000E00061001BBA15BA089582E080936A001ABEB7
:1000F00081E089BF089582E080938B008AE180933C
:100100008A0084E080937D0080E49CE990938100E4
:1001100080938000089582EA8FBD8AE18EBD17BE6C
:1001200080ED97E097BD86BD1BBC1ABC19BC18BCFE
:1001300008951092900088E089B988E18AB986E034
:1001400080939500089517B887E886B908955D9B58
:10015000FECF8CB908955F9BFECF8CB10895CF93ED
:10016000DF93EC015D9BFECFBE0180E090E020EAD2
:1001700036E841E050E00E94A51020E137E240E07F
:1001800050E00E94A510205D2CB95D9BFECFCE01F2
:1001900060E177E20E947E1068EE73E00E947E10BC
:1001A000605D6CB95D9BFECFCE0168EE73E00E948E
:1001B0007E1064E670E00E947E10605D6CB95D9B0D
:1001C000FECFCE0164E670E00E947E106AE070E02F
:1001D0000E947E10605D6CB95D9BFECFCE016AE02F
:1001E00070E00E947E10805D8CB9DF91CF91089500
:1001F0000E94670022E020938B008AE180938A00AE
:1002000084E080937D0080E49CE99093810080935A
:10021000800020936A001ABE81E089BF17B887E882
:1002200086B91092900088E089B988E18AB986E0A1
:10023000809395000E948B007894FFCF1F920F92BD
:100240000FB60F9211248F939F9380913C0290914F
:100250003D02019690933D0280933C0280913C02C6
:1002600090913D02049734F083E090E090933D023A
:1002700080933C029F918F910F900FBE0F901F9023
:1002800018951F920F920FB60F9211248F939F9380
:10029000F8940C9B03C00D9B03C008C00D9B06C0C7
:1002A0008091860290918702019605C08091860216
:1002B00090918702019790938702809386027894A9
:1002C0009F918F910F900FBE0F901F9018951F92C6
:1002D0000F920FB60F9211248F939F93F8940D9B5A
:1002E00003C00C9B03C008C00C9B06C08091860213
:1002F00090918702019705C08091860290918702B4
:100300000196909387028093860278949F918F91B3
:100310000F900FBE0F901F9018951F920F920FB65F
:100320000F9211248F939F93F8940E9B03C00F9B01
:1003300003C008C00F9B06C080918802909189027B
:10034000019705C08091880290918902019690934F
:1003500089028093880278949F918F910F900FBEAD
:100360000F901F9018951F920F920FB60F921124A5
:100370008F939F93F8940F9B03C00E9B03C008C0FC
:100380000E9B06C08091880290918902019605C05B
:1003900080918802909189020197909389028093BD
:1003A000880278949F918F910F900FBE0F901F90AD
:1003B0001895FF920F931F9310923F0210923E02E6
:1003C00080E2F82E2AE252E010E403E044E0B6E0D6
:1003D000A8E0E7E0F0E870E131E065E0BCC08091C2
:1003E0003E0290913F028330910509F452C084305F
:1003F00091054CF48130910541F182309105BCF5B5
:10040000892B89F09FC08530910509F466C085303D
:1004100091050CF450C08630910509F470C007971F
:1004200009F090C07EC03BBB822F8A95F1F786B160
:10043000806C86B9349BFECF84B195B19093430212
:10044000809342021BBA47B97DC07BBB822F8A953D
:10045000F1F786B1806C86B9349BFECF84B195B13B
:1004600090934B0280934A021BBA37B96BC05BBBB7
:10047000822F8A95F1F786B1806C86B9349BFECFC6
:1004800084B195B190934502809344021BBA67B939
:1004900059C0FBBA822F8A95F1F786B1806C86B974
:1004A000349BFECF84B195B190934D0280934C0262
:1004B0001BBA57B947C04BBB822F8A95F1F786B15B
:1004C000806C86B9349BFECF84B195B1909347027E
:1004D000809346021BBAB7B935C01BBB822F8A95E1
:1004E000F1F786B1806C86B9349BFECF84B195B1AB
:1004F00090934F0280934E021BBA07B923C0ABBB47
:10050000822F8A95F1F786B1806C86B9349BFECF35
:1005100084B195B190934902809348021BBAE7B920
:1005200011C0FBBB822F8A95F1F786B1806C86B92A
:10053000349BFECF84B195B19093510280935002C9
:100540001BBA17B880913E0290913F02019690939A
:100550003F0280933E0280913E0290913F020897B5
:100560000CF43DCF1F910F91FF90089510923F0220
:1005700010923E025FC0E0913E02F0913F02EE0F0A
:10058000FF1FEE5AFD4F20813181E0913E02F09134
:100590003F02EE0FFF1FEE5BFD4F80819181281718
:1005A0003907A4F4E0913E02F0913F02A0913E028F
:1005B000B0913F02AA0FBB1FAE5BBD4F8D919C91C6
:1005C000EE0FFF1FEE5AFD4F91838083E0913E02B4
:1005D000F0913F02EE0FFF1FE050FF4F208131816D
:1005E000E0913E02F0913F02EE0FFF1FEE5BFD4FE8
:1005F0008081918182179307A4F4E0913E02F091EB
:100600003F02A0913E02B0913F02AA0FBB1FAE5B1A
:10061000BD4F8D919C91EE0FFF1FE050FF4F9183D6
:10062000808380913E0290913F02019690933F0219
:1006300080933E0280913E0290913F0208970CF415
:100640009ACF08956F927F928F929F92AF92BF92AE
:10065000CF92DF92EF92FF920F931F9310923F027F
:1006600010923E0260C0E0913E02F0913F02EE0F18
:10067000FF1FEE5AFD4F60817181E0913E02F091C3
:100680003F02EE0FFF1FEE5BFD4F20813181E091B5
:100690003E02F0913F02EE0FFF1FEE5AFD4FE08049
:1006A000F180E0913E02F0913F02EE0FFF1FE0501B
:1006B000FF4F6080718080903E0290903F02621BED
:1006C000730B882777FD8095982F0E94D70D20E027
:1006D00030E048E452E40E94710B5B016C01E618C3
:1006E000F7080027F7FC0095102FC801B7010E94FA
:1006F000D70D9B01AC01C601B5010E946B0C0E9495
:10070000350E880C991C22E632E0820E931EF4010D
:100710007183608380913E0290913F020196909395
:100720003F0280933E0280913E0290913F020897E3
:100730000CF499CF1F910F91FF90EF90DF90CF9025
:10074000BF90AF909F908F907F906F900895DF93B0
:10075000CF93CDB7DEB760970FB6F894DEBF0FBE6C
:10076000CDBFDE011196E4E2F1E080E101900D924F
:100770008150E1F710923F0210923E02AE014F5FAE
:100780005F4F30C0A0913E02B0913F02E0913E0227
:10079000F0913F02EE0FFF1FEE59FD4F2081318196
:1007A000E0913E02F0913F02EE0FFF1FE40FF51FB4
:1007B00080819181BC01269FC001279F900D369FAB
:1007C000900D1124AA0FBB1FAE58BD4F11969C93DC
:1007D0008E9380913E0290913F02019690933F024A
:1007E00080933E0280913E0290913F02089754F21E
:1007F00060960FB6F894DEBF0FBECDBFCF91DF91EC
:10080000089510923F0210923E0260E070E017C01F
:10081000E0913E02F0913F02EE0FFF1FEE59FD4FB7
:1008200080819181C29714F06F5F7F4F80913E026B
:1008300090913F02019690933F0280933E028091F7
:100840003E0290913F0208971CF310923F021092D3
:100850003E0220E030E021C0E0913E02F0913F02F4
:10086000EE0FFF1FEE59FD4F80819181C29764F01A
:10087000E0913E02F0913F02EE0FFF1FEE58FD4F58
:1008800080819181280F391F80913E0290913F0213
:10089000019690933F0280933E0280913E02909198
:1008A0003F020897CCF26115710569F480E090E091
:1008B000A0E0B0E08093820290938302A093840230
:1008C000B09385020895C9010E949210882777FD90
:1008D0008095982F0E94D70D6093820270938302B7
:1008E000809384029093850208959C018CE32D38B7
:1008F00038071CF020E83EE306C083EC24373807B5
:1009000014F420E831EC8CE36D3878071CF060E8D3
:100910007EE306C083EC6437780714F460E871EC7A
:1009200037FD04C0AA9A3BBD2ABD07C0AA988827F4
:100930009927821B930B9BBD8ABD77FD04C0AB98A2
:1009400079BD68BD0895AB9A88279927861B970BB8
:1009500099BD88BD08951F920F920FB60F920BB6E6
:100960000F921124AF92BF92CF92DF92EF92FF923B
:100970000F931F932F933F934F935F936F937F93A7
:100980008F939F93AF93BF93EF93FF93F8948091CE
:100990003C0290913D028130910579F082309105C1
:1009A0001CF4892B41F001C28230910569F0039754
:1009B00009F0FBC10CC015BAF8C181E085BB0E94EB
:1009C000D9010E94B602F1C182E085BBEEC183E08D
:1009D00085BB0E94D9010E9422030E94A7030E94A6
:1009E000010460918202709183028091840290914F
:1009F000850220E030E040E050E00E94470D88236F
:100A00000CF449C0E0901001F09011010091120126
:100A1000109113016091820270918302809184028F
:100A20009091850220E030E048EC53E40E946B0C8A
:100A30009B01AC01C801B7010E94440B60939E0268
:100A400070939F028093A0029093A102E090100106
:100A5000F090110100911201109113016091820236
:100A600070918302809184029091850220E030E0B1
:100A700048EC53EC0E946B0C9B01AC01C801B70120
:100A80000E94440B6093AE027093AF028093B00259
:100A90009093B10248C0E0901001F09011010091D4
:100AA0001201109113016091820270918302809172
:100AB00084029091850220E030E048EC53E40E94EB
:100AC0006B0C9B01AC01C801B7010E94440B609301
:100AD000AE027093AF028093B0029093B102E090A7
:100AE0001001F09011010091120110911301609119
:100AF000820270918302809184029091850220E0AD
:100B000030E048EC53EC0E946B0C9B01AC01C80137
:100B1000B7010E94440B60939E0270939F028093E2
:100B2000A0029093A10260919E0270919F02809119
:100B3000A0029091A10220E030E048EC52E40E9433
:100B4000470D882364F080E090E0A8ECB2E4809345
:100B50009E0290939F02A093A002B093A102609185
:100B6000AE027091AF028091B0029091B10220E08C
:100B700030E048EC52E40E94470D882364F080E0A6
:100B800090E0A8ECB2E48093AE029093AF02A09301
:100B9000B002B093B10260919E0270919F02809169
:100BA000A0029091A10220E030E040E050E00E94DD
:100BB000A70D181664F080E090E0A0E0B0E080930C
:100BC0009E0290939F02A093A002B093A102609115
:100BD000AE027091AF028091B0029091B10220E01C
:100BE00030E040E050E00E94A70D181664F080E06D
:100BF00090E0A0E0B0E08093AE029093AF02A093AB
:100C0000B002B093B102E0909E02F0909F0200917A
:100C1000A0021091A102609186027091870288273C
:100C200077FD8095982F0E94D70D9B01AC01C801DC
:100C3000B7010E94130B6093A2027093A3028093EA
:100C4000A4029093A50260911C0170911D018091F6
:100C50001E0190911F012091A2023091A3024091A8
:100C6000A4025091A502E090AA02F090AB0200917C
:100C7000AC021091AD020E94710BA80197010E9475
:100C8000440B6093A6027093A7028093A8029093EE
:100C9000A902E090AE02F090AF020091B002109174
:100CA000B1026091880270918902882777FD809552
:100CB000982F0E94D70D9B01AC01C801B7010E947B
:100CC000130B6093B2027093B3028093B4029093BB
:100CD000B5026091200170912101809122019091D3
:100CE00023012091B2023091B3024091B40250919D
:100CF000B502E090BA02F090BB020091BC021091E4
:100D0000BD020E94710BA80197010E94440B6093E1
:100D1000B6027093B7028093B8029093B9026091C3
:100D2000A6027091A7028091A8029091A902E0907A
:100D3000B602F090B7020091B8021091B9020E9479
:100D4000350E5B016C01C801B7010E94350E9B0195
:100D5000AC01C501B9010E9475041092870210927E
:100D6000860210928902109288028091A6029091C8
:100D7000A702A091A802B091A9028093AA02909321
:100D8000AB02A093AC02B093AD028091B6029091F9
:100D9000B702A091B802B091B9028093BA029093C1
:100DA000BB02A093BC02B093BD027894FF91EF9177
:100DB000BF91AF919F918F917F916F915F914F9173
:100DC0003F912F911F910F91FF90EF90DF90CF9067
:100DD000BF90AF900F900BBE0F900FBE0F901F9063
:100DE00018956F927F928F929F92AF92BF92CF92FF
:100DF000DF92EF92FF920F931F93609182027091A6
:100E00008302809184029091850220E030E040E0EE
:100E100050E00E94170D181684F0609182027091C4
:100E20008302809184029091850220E030E040E0CE
:100E300050E00E94770D8823A4F560911001709115
:100E40001101809112019091130120918202309141
:100E500083024091840250918502A0901001B090CD
:100E60001101C0901201D090130160908202709025
:100E7000830280908402909085020E94440B0E941D
:100E8000350E7B018C01C601B501A40193010E94BE
:100E9000130B0E94350E9B01AC01C701B9010E94E2
:100EA00075041F910F91FF90EF90DF90CF90BF904E
:100EB000AF909F908F907F906F9008950F931F93A6
:100EC0005D9BFECF84E48CB95D9BFECF81E68CB93F
:100ED0005D9BFECF84E78CB95D9BFECF89E08CB92A
:100EE00010923F0210923E0219E018C0E0913E02BB
:100EF000F0913F02EE0FFF1FEE5BFD4F808191816D
:100F00000E94AF005D9BFECF1CB980913E02909184
:100F10003F02019690933F0280933E0280913E02F1
:100F200090913F02089714F35D9BFECF8AE08CB945
:100F30005D9BFECF8DE08CB95D9BFECF8DE48CB9BF
:100F40005D9BFECF81E68CB95D9BFECF88E78CB9B7
:100F50005D9BFECF89E08CB910923F0210923E0259
:100F600019E018C0E0913E02F0913F02EE0FFF1F22
:100F7000EE5AFD4F808191810E94AF005D9BFECFB4
:100F80001CB980913E0290913F02019690933F02DE
:100F900080933E0280913E0290913F02089714F3A5
:100FA0005D9BFECF8AE08CB95D9BFECF8DE08CB956
:100FB0005D9BFECF8DE48CB95D9BFECF89E68CB93D
:100FC0005D9BFECF8EE68CB95D9BFECF89E08CB930
:100FD00010923F0210923E0219E018C0E0913E02CA
:100FE000F0913F02EE0FFF1FE050FF4F8081918193
:100FF0000E94AF005D9BFECF1CB980913E02909194
:101000003F02019690933F0280933E0280913E0200
:1010100090913F02089714F35D9BFECF8AE08CB954
:101020005D9BFECF8DE08CB95D9BFECF8EE48CB9CD
:101030005D9BFECF8FE68CB95D9BFECF8DE68CB9B4
:101040005D9BFECF89E08CB910923F0210923E0268
:1010500019E018C0E0913E02F0913F02EE0FFF1F31
:10106000EE59FD4F808191810E94AF005D9BFECFC4
:101070001CB980913E0290913F02019690933F02ED
:1010800080933E0280913E0290913F02089714F3B4
:101090005D9BFECF8AE08CB95D9BFECF8DE08CB965
:1010A0005D9BFECF87E58CB95D9BFECF85E68CB955
:1010B0005D9BFECF89E68CB95D9BFECF89E08CB944
:1010C00010923F0210923E020DE219E063C0E091DF
:1010D0003E02F0913F02EE0FFF1FEE58FD4F808160
:1010E000918197FD0DC0E0913E02F0913F02EE0F1D
:1010F000FF1FEE58FD4F808191810E94AF003EC0DE
:10110000E0913E02F0913F02A0913E02B0913F0279
:10111000AA0FBB1FAE58BD4F8D919C9190958195A4
:101120009F4FEE0FFF1FEE58FD4F918380835D9B15
:10113000FECF0CB9E0913E02F0913F02EE0FFF1F8F
:10114000EE58FD4F808191810E94AF00A0913E0238
:10115000B0913F02E0913E02F0913F02EE0FFF1F7F
:10116000EE58FD4F80819181909581959F4FAA0FF8
:10117000BB1FAE58BD4F11969C938E935D9BFECFC7
:101180001CB980913E0290913F02019690933F02DC
:1011900080933E0280913E0290913F0208970CF4AA
:1011A00096CF5D9BFECF8AE08CB95D9BFECF8DE034
:1011B0008CB95D9BFECF83E58CB95D9BFECF85E648
:1011C0008CB95D9BFECF8EE68CB95D9BFECF89E02E
:1011D0008CB9609182027091830280918402909117
:1011E000850220E030E040E050E00E94470D882377
:1011F0007CF06091820270918302809184029091D0
:1012000085020E949B09DC01CB010E94AF0034C023
:101210008091820290918302A0918402B091850214
:10122000B0588093820290938302A0938402B0937B
:1012300085025D9BFECF8DE28CB960918202709138
:10124000830280918402909185020E949B09DC01B7
:10125000CB010E94AF008091820290918302A09105
:101260008402B0918502B0588093820290938302E9
:10127000A0938402B09385025D9BFECF8AE08CB977
:101280005D9BFECF8DE08CB95D9BFECF8DE48CB96C
:101290005D9BFECF8FE68CB95D9BFECF84E78CB95A
:1012A0005D9BFECF89E08CB96091100170911101B6
:1012B000809112019091130120918202309183025A
:1012C00040918402509185020E94440B0E949B0928
:1012D000DC01CB010E94AF005D9BFECF89E08CB9A1
:1012E0006091100170911101809112019091130190
:1012F00020918202309183024091840250918502B4
:101300000E94130B0E949B09DC01CB010E94AF00DD
:101310005D9BFECF8AE08CB95D9BFECF8DE08CB9E2
:101320005D9BFECF8AE08CB95D9BFECF8DE08CB9D2
:101330001F910F910895EF92FF920F931F937B01DE
:101340008C0120E030E040E05FE40E94470D8823FC
:101350008CF0C801B70120E030E040E05FE40E947B
:10136000130B0E94350E9B01AC01205030404040D1
:10137000504806C0C801B7010E94350E9B01AC0160
:10138000B901CA011F910F91FF90EF900895A0E05D
:10139000B0E0EDECF9E00C94E210DC012B01FA0175
:1013A0009C91923008F439C1EB018881823008F4B5
:1013B00033C1943069F4843009F02FC111969C91A7
:1013C00011978981981709F428C1A4E3B1E025C1D8
:1013D000843009F421C18230A9F4923009F01DC192
:1013E0009A01AD0188E0EA010990AE01E901099294
:1013F0009E018150C1F7E201898111969C91892358
:10140000818308C1923009F407C112962D903C9057
:101410001397EB018A819B811496AD90BD90CD907E
:10142000DC901797EC80FD800E811F819101281BB5
:10143000390BB90137FF04C066277727621B730B8E
:10144000603271050CF061C0121613066CF537019D
:101450004801062E04C096948794779467940A9462
:10146000D2F721E030E040E050E004C0220F331F0B
:10147000441F551F6A95D2F72150304040405040DC
:101480002E213F21402351232115310541055105CE
:1014900021F021E030E040E050E079018A01E628C7
:1014A000F728082919293CC0232BD1F1260E371E15
:1014B00035014601062E04C096948794779467946C
:1014C0000A94D2F721E030E040E050E004C0220F5F
:1014D000331F441F551F6A95D2F7215030404040BA
:1014E00050402A213B214C215D2121153105410528
:1014F000510521F021E030E040E050E059016A015F
:10150000A628B728C828D9280BC0821593052CF027
:101510001C01AA24BB24650103C0EE24FF2487011B
:1015200011969C91D20111968C91981709F445C09F
:10153000992339F0A80197012A193B094C095D0943
:1015400006C0A60195012E193F09400B510B57FD0E
:1015500008C01182338222822483358346835783D5
:101560001DC081E081833382228288279927DC0194
:10157000821B930BA40BB50B84839583A683B7833F
:101580000DC0220F331F441F551F2483358346830C
:10159000578382819381019793838283248135814C
:1015A00046815781DA01C9010197A109B1098F5F0D
:1015B0009F4FAF4FBF4328F30BC0918333822282EA
:1015C000EA0CFB1C0C1D1D1DE482F58206831783AB
:1015D00083E08083248135814681578157FF1AC07B
:1015E000C901AA2797FDA095BA2F81709070A070AD
:1015F000B0705695479537952795822B932BA42B42
:10160000B52B84839583A683B783828193810196CA
:1016100093838283DF0101C0D201CD01CDB7DEB754
:10162000E2E10C94FE10A0E2B0E0E9E1FBE00C94F2
:10163000EE1069837A838B839C832D833E834F8353
:101640005887E9E0EE2EF12CEC0EFD1ECE0101963E
:10165000B7010E94AD0F8E010F5E1F4FCE010596A0
:10166000B8010E94AD0F8A8991E089278A8BC70152
:10167000B801AE01475E5F4F0E94C7090E94D80EB5
:10168000A096E6E00C940A11A0E2B0E0EAE4FBE0E8
:101690000C94EE1069837A838B839C832D833E8325
:1016A0004F835887F9E0EF2EF12CEC0EFD1ECE0192
:1016B0000196B7010E94AD0F8E010F5E1F4FCE0144
:1016C0000596B8010E94AD0FC701B801AE01475E93
:1016D0005F4F0E94C7090E94D80EA096E6E00C94C6
:1016E0000A11A0E2B0E0E7E7FBE00C94E2106983A6
:1016F0007A838B839C832D833E834F835887CE01CF
:101700000196BE01675F7F4F0E94AD0FCE01059627
:10171000BE016F5E7F4F0E94AD0F9985923088F0B9
:1017200089898230C8F0943019F4823051F404C0B1
:10173000843029F4923081F484E391E0C6C0923081
:1017400049F420E09A858A89981321E02A87CE01FE
:101750000996BBC0823049F420E09A858A899813A3
:1017600021E02A8BCE014196B0C02D843E844F8467
:1017700058886D887E888F88988CEE24FF24870196
:10178000AA24BB24650140E050E060E070E0E0E0A6
:10179000F0E0C10181709070892BE9F0E60CF71C34
:1017A000081D191D9A01AB012A0D3B1D4C1D5D1D25
:1017B00080E090E0A0E0B0E0E614F7040805190529
:1017C00020F481E090E0A0E0B0E0BA01A901480F68
:1017D000591F6A1F7B1FAA0CBB1CCC1CDD1C97FE6B
:1017E00008C081E090E0A0E0B0E0A82AB92ACA2AA7
:1017F000DB2A3196E032F10549F0660C771C881C33
:10180000991C5694479437942794C3CFFA85EA8954
:101810002B893C898B859C85280F391F2E5F3F4F74
:1018200017C0CA0181709070892B61F016950795D9
:10183000F794E79480E090E0A0E0B0E8E82AF92A85
:101840000A2B1B2B76956795579547952F5F3F4F32
:1018500077FDE7CF0CC0440F551F661F771F17FD9C
:101860004160EE0CFF1C001F111F21503040403022
:1018700090E0590790E0690790E4790760F32B8FB7
:101880003C8FDB01CA018F779070A070B0708034FC
:101890009105A105B10561F447FD0AC0E114F10409
:1018A0000105110529F0405C5F4F6F4F7F4F407875
:1018B0001A8EFE1711F081E08A8F4D8F5E8F6F8F29
:1018C00078A383E0898FCE0149960E94D80EA09616
:1018D000E2E10C94FE10A8E1B0E0E1E7FCE00C943A
:1018E000EA1069837A838B839C832D833E834F83A5
:1018F0005887B9E0EB2EF12CEC0EFD1ECE010196BF
:10190000B7010E94AD0F8E010F5E1F4FCE010596ED
:10191000B8010E94AD0F2985223008F47EC03989B4
:10192000323010F4B8017CC08A859A8989278A8769
:10193000243011F0223031F4231709F06EC064E333
:1019400071E06EC0343039F41D861E861F86188AF9
:101950001C861B8604C0323021F484E08987B701DD
:101960005FC02B853C858B899C89281B390B3C8764
:101970002B87ED84FE840F851889AD88BE88CF88BB
:10198000D88CEA14FB040C051D0540F4EE0CFF1C7A
:10199000001F111F215030403C872B8720E030E092
:1019A00040E050E080E090E0A0E0B0E460E070E073
:1019B000EA14FB040C051D0540F0282B392B4A2B9B
:1019C0005B2BEA18FB080C091D09B695A79597959E
:1019D0008795EE0CFF1C001F111F6F5F7F4F6F314B
:1019E000710531F7DA01C9018F779070A070B0707E
:1019F00080349105A105B10561F427FD0AC0E11409
:101A0000F1040105110529F0205C3F4F4F4F5F4F56
:101A100020782D873E874F87588BBE01675F7F4FA9
:101A2000CB010E94D80E6896EAE00C940611A8E15A
:101A3000B0E0EDE1FDE00C94EE1069837A838B83D6
:101A40009C832D833E834F83588789E0E82EF12CB9
:101A5000EC0EFD1ECE010196B7010E94AD0F8E0166
:101A60000F5E1F4FCE010596B8010E94AD0F89850C
:101A7000823040F08989823028F0C701B8010E9485
:101A8000251001C08FEF6896E6E00C940A11A8E1DA
:101A9000B0E0EDE4FDE00C94EE1069837A838B8373
:101AA0009C832D833E834F83588789E0E82EF12C59
:101AB000EC0EFD1ECE010196B7010E94AD0F8E0106
:101AC0000F5E1F4FCE010596B8010E94AD0F8985AC
:101AD000823040F08989823028F0C701B8010E9425
:101AE000251001C08FEF6896E6E00C940A11A8E17A
:101AF000B0E0EDE7FDE00C94EE1069837A838B8310
:101B00009C832D833E834F83588789E0E82EF12CF8
:101B1000EC0EFD1ECE010196B7010E94AD0F8E01A5
:101B20000F5E1F4FCE010596B8010E94AD0F89854B
:101B3000823040F08989823028F0C701B8010E94C4
:101B4000251001C081E06896E6E00C940A11A8E136
:101B5000B0E0EDEAFDE00C94EE1069837A838B83AC
:101B60009C832D833E834F83588789E0E82EF12C98
:101B7000EC0EFD1ECE010196B7010E94AD0F8E0145
:101B80000F5E1F4FCE010596B8010E94AD0F8985EB
:101B9000823040F08989823028F0C701B8010E9464
:101BA000251001C081E06896E6E00C940A11A8E0D7
:101BB000B0E0EDEDFDE00C94EB109B01AC0183E097
:101BC0008983DA01C9018827B7FD83959927AA2758
:101BD000BB27B82E211531054105510519F482E0C6
:101BE00089833AC08823A9F0203080E0380780E05C
:101BF000480780E8580729F460E070E080E09FEC37
:101C000030C0EE24FF248701E21AF30A040B150BFF
:101C100002C079018A018EE1C82ED12CDC82CB82F0
:101C2000ED82FE820F831887C801B7010E94890EDA
:101C300001971816190684F4082E04C0EE0CFF1C38
:101C4000001F111F0A94D2F7ED82FE820F831887BE
:101C5000C81AD90ADC82CB82BA82CE0101960E94D0
:101C6000D80E2896E9E00C940711ACE0B0E0EBE365
:101C7000FEE00C94F21069837A838B839C83CE01FF
:101C80000196BE016B5F7F4F0E94AD0F8D81823048
:101C900061F1823050F1843021F48E81882351F13A
:101CA0002EC02F81388537FD20C06E812F31310540
:101CB0001CF06623F9F023C08EE190E0821B930BA9
:101CC00029853A854B855C8504C05695479537959F
:101CD00027958A95D2F76623B1F0509540953095B7
:101CE00021953F4F4F4F5F4F0EC020E030E040E066
:101CF00050E009C02FEF3FEF4FEF5FE704C020E057
:101D000030E040E050E8B901CA012C96E2E00C94C2
:101D10000E11EF92FF920F931F937B018C0180E0D5
:101D2000E81680E0F80681E0080780E0180788F4EC
:101D30008FEFE816F1040105110531F028F088E075
:101D400090E0A0E0B0E017C080E090E0A0E0B0E05C
:101D500012C080E0E81680E0F80680E0080781E025
:101D6000180728F088E190E0A0E0B0E004C080E12E
:101D700090E0A0E0B0E020E230E040E050E0281B3E
:101D8000390B4A0B5B0B04C016950795F794E79443
:101D90008A95D2F7F701E45CFE4F8081281B310958
:101DA00041095109C9011F910F91FF90EF900895CA
:101DB000DF92EF92FF920F931F93FC01E480F58076
:101DC00006811781D1808081823048F480E090E0E4
:101DD000A0E1B0E0E82AF92A0A2B1B2BA5C0843029
:101DE00009F49FC0823021F4EE24FF24870105C04E
:101DF000E114F1040105110519F4E0E0F0E096C0EA
:101E0000628173819FEF623879070CF05BC022E832
:101E10003FEF261B370B2A3131052CF020E030E054
:101E200040E050E02AC0B801A701022E04C0769518
:101E30006795579547950A94D2F781E090E0A0E026
:101E4000B0E004C0880F991FAA1FBB1F2A95D2F7C4
:101E50000197A109B1098E219F21A023B1230097E9
:101E6000A105B10521F081E090E0A0E0B0E09A0189
:101E7000AB01282B392B4A2B5B2BDA01C9018F7759
:101E80009070A070B07080349105A105B10539F44F
:101E900027FF09C0205C3F4F4F4F5F4F04C0215CBC
:101EA0003F4F4F4F5F4FE0E0F0E02030A0E03A07B7
:101EB000A0E04A07A0E45A0710F0E1E0F0E0790161
:101EC0008A0127C06038710564F5FB01E158FF4FB6
:101ED000D801C7018F779070A070B07080349105E1
:101EE000A105B10539F4E7FE0DC080E490E0A0E063
:101EF000B0E004C08FE390E0A0E0B0E0E80EF91E8F
:101F00000A1F1B1F17FF05C016950795F794E79446
:101F1000319687E016950795F794E7948A95D1F75F
:101F200005C0EE24FF248701EFEFF0E06E2F6795E8
:101F300066276795902F9F77D794DD24D7948E2FAF
:101F40008695492F462B582F5D29B701CA011F914D
:101F50000F91FF90EF90DF900895FC01DB0140812D
:101F600051812281622F6F7770E0221F2227221F6A
:101F70009381892F880F822B282F30E0991F992772
:101F8000991F11969C93119721153105A9F54115BB
:101F900051056105710511F482E037C082E89FEFB9
:101FA00013969C938E9312979A01AB0167E0220FD0
:101FB000331F441F551F6A95D1F783E08C930DC0E2
:101FC000220F331F441F551F12968D919C9113971A
:101FD000019713969C938E931297203080E03807D8
:101FE00080E0480780E4580758F314962D933D93FA
:101FF0004D935C93179708952F3F310579F4411560
:1020000051056105710519F484E08C93089564FF0E
:1020100003C081E08C9312C01C9210C02F57304037
:1020200013963C932E93129783E08C9387E0440F92
:10203000551F661F771F8A95D1F7706414964D93CC
:102040005D936D937C93179708951F93DC01FB01BB
:102050009C91923008F447C08081823008F443C0DC
:10206000943051F411961C91843099F58181682F38
:1020700070E0611B71093FC0843021F0923031F46F
:102080008230B9F18181882389F12DC011961C918C
:1020900011978230F1F081811817D9F412962D91A1
:1020A0003C911397828193818217930794F02817AC
:1020B0003907BCF014968D919D910D90BC91A02D87
:1020C0002481358146815781281739074A075B07E4
:1020D00018F4112341F00AC082179307A407B5072B
:1020E00040F4112319F061E070E005C06FEF7FEF5D
:1020F00002C060E070E0CB011F910895AA1BBB1BDA
:1021000051E107C0AA1FBB1FA617B70710F0A61BF7
:10211000B70B881F991F5A95A9F780959095BC0118
:10212000CD01089597FB092E07260AD077FD04D02C
:10213000E5DF06D000201AF4709561957F4F089571
:10214000F6F7909581959F4F089597FB092E0526E8
:102150000ED057FD04D014D00AD0001C38F450958E
:102160004095309521953F4F4F4F5F4F0895F6F7BB
:1021700090958095709561957F4F8F4F9F4F0895F3
:10218000A1E21A2EAA1BBB1BFD010DC0AA1FBB1F7B
:10219000EE1FFF1FA217B307E407F50720F0A21BED
:1021A000B30BE40BF50B661F771F881F991F1A945A
:1021B00069F760957095809590959B01AC01BD0184
:1021C000CF0108952F923F924F925F926F927F922C
:1021D0008F929F92AF92BF92CF92DF92EF92FF9237
:1021E0000F931F93CF93DF93CDB7DEB7CA1BDB0BE3
:1021F0000FB6F894DEBF0FBECDBF09942A88398888
:1022000048885F846E847D848C849B84AA84B9848E
:10221000C884DF80EE80FD800C811B81AA81B9819A
:10222000CE0FD11D0FB6F894DEBF0FBECDBFED01AE
:062230000895F894FFCFB1
:10223600FF03FF03FF03FF03FF03FF03FF03FF0388
:102246000000A04100007041000000400000704105
:1022560000007041640046001E000A00F6FFE2FF1F
:10226600BAFF9CFF0000000000000000000102020F
:102276000303030304040404040404040505050518
:1022860005050505050505050505050506060606F4
:1022960006060606060606060606060606060606D8
:1022A60006060606060606060606060607070707C4
:1022B60007070707070707070707070707070707A8
:1022C6000707070707070707070707070707070798
:1022D6000707070707070707070707070707070788
:1022E6000707070707070707070707070808080874
:1022F6000808080808080808080808080808080858
:102306000808080808080808080808080808080847
:102316000808080808080808080808080808080837
:102326000808080808080808080808080808080827
:102336000808080808080808080808080808080817
:102346000808080808080808080808080808080807
:1023560008080808080808080808080808080808F7
:0C2366000808080808080808080808080B
:00000001FF
