S01300004C696E655F5472616365722E73726563C9
S113000045C0000060C000005EC000005CC000008D
S11300105AC0000058C0000056C0000054C0000080
S113002052C0000050C000004EC000004CC0000090
S11300304AC0000048C0000046C0000044C00000A0
S113004042C0000040C000003EC000003CC00000B0
S11300503AC0000038C0000036C0000034C00000C0
S113006032C0000030C000002EC000002CC00000D0
S11300702AC0000028C0000026C0000024C00000E0
S113008022C0000020C000001EC0000011241FBEBA
S1130090CFEFD0E1DEBFCDBF11E0A0E0B1E0ECE3F3
S11300A0F1E000E00BBF02C007900D92A030B10751
S11300B0D9F721E0A0E0B1E001C01D92A030B20761
S11300C0E1F736D039C09CCF8FEF84BB15BA0895C1
S11300D08FEF87BB9FE693BF9DE695BD82BF84BD2E
S11300E081BF83BD08958FEF81BF83BD2FEF83ED63
S11300F090E3215080409040E1F700C0000080E888
S113010081BF83BD2FEF83ED90E321508040904069
S1130110E1F700C0000084E485BB2FEF83ED90E39A
S1130120215080409040E1F700C0000015BA0895C6
S10F0130CFDFCADFD8DFFECFF894FFCF8A
S9030000FC
