:100000004DC0000068C0000066C0000064C0000071
:1000100062C0000060C000005EC000005CC0000064
:100020005AC0000058C0000056C0000054C0000074
:1000300052C0000050C000004EC000004CC0000084
:100040004AC0000048C0000046C0000044C0000094
:1000500042C0000040C000003EC000003CC00000A4
:100060003AC0000038C0000036C0000034C00000B4
:1000700032C0000030C000002EC000002CC00000C4
:100080002AC0000028C0000026C00000AF00BD004C
:10009000CB00D900E700F5000301110111241FBEB8
:1000A000CFEFD0E1DEBFCDBF11E0A0E0B1E0E0E4F2
:1000B000F7E000E00BBF02C007900D92A031B1073E
:1000C000D9F721E0A0E1B1E001C01D92A034B20750
:1000D000E1F78AD133C394CF8FEF8ABB82B91092F4
:1000E000610080EC87B987E886B908958F929F9266
:1000F000AF92BF92CF92DF92EF92FF920F931F9336
:10010000CF93DF934C0121E030E06894DD24D6F8F2
:100110000F2EF7ECEF2EF02D6894FF24F5F806EC87
:1001200010E1D5ECC8E0B4ECA4E073EC62E00F2E73
:10013000F2ECCF2EF02DBB24B3940F2EF1ECAF2EAA
:10014000F02D02C02F5F3F4FA901415051094830A7
:10015000510508F076C04A5B5F4FFA01E9C2BBBAAD
:1001600086B1806C86B9349BFECF84B195B1F40121
:10017000918380831BBAA7B8E5CF6BBB86B1806C37
:1001800086B9349BFECF84B195B1F4019383828309
:100190001BBAC7B8D7CFABBB86B1806C86B9349BCE
:1001A000FECF84B195B1F401958384831BBA77B9EE
:1001B000C9CFCBBB86B1806C86B9349BFECF84B1EE
:1001C00095B1F401978386831BBAB7B9BBCF1BBB2C
:1001D00086B1806C86B9349BFECF84B195B1F401B1
:1001E000918780871BBAD7B9ADCFFBBA86B1806C37
:1001F00086B9349BFECF84B195B1F4019387828791
:100200001BBA07B99FCFDBBA86B1806C86B9349B25
:10021000FECF84B195B1F401958784871BBAE7B806
:1002200091CF80E88BBB86B1806C86B9349BFECFC2
:1002300084B195B1F401978786871BBA80EC87B9A2
:1002400004C0283031050CF47DCFDF91CF911F9190
:100250000F91FF90EF90DF90CF90BF90AF909F9065
:100260008F9008950F931F93CF93DF93EC01062F88
:10027000172FE42FF52F80E090E0AF01208131812E
:10028000688179816217730714F439832883DA014E
:100290002D913C913296D8014D915C911197241784
:1002A000350714F42D933C93019622960E5F1F4F51
:1002B0008830910511F7DF91CF911F910F9108952B
:1002C0002F923F924F925F926F927F928F929F9266
:1002D000AF92BF92CF92DF92EF92FF920F931F9354
:1002E000CF93DF93A42EB52EC62ED72EE22EF32E5B
:1002F0004C01C0E0D0E0F501019111915F01F601E0
:10030000819191916F01F701219031907F01B801A6
:10031000681B790B882777FD8095982F1AD120E0EC
:1003200030E048EC52E4A1D12B013C01B801621944
:100330007309882777FD8095982F0BD19B01AC011D
:10034000C301B2016BD0D2D0F401619371934F011C
:100350002196C830D10579F6DF91CF911F910F9189
:10036000FF90EF90DF90CF90BF90AF909F908F90D5
:100370007F906F905F904F903F902F9008958FEFF8
:1003800084BB15BA81BB80E382BB08958FEF87BB26
:100390009FE693BF9DE695BD82BF84BD81BF83BDAF
:1003A0000895FC0120813181223331053CF086859E
:1003B0009785C3971CF484E085BB089523333105EA
:1003C0003CF486859785C2971CF080E485BB089530
:1003D000223331053CF086859785C2971CF084E472
:1003E00085BB089515BA0895D1DFC9DF75DE80E3B6
:1003F00091E07CDE40E351E060E071E080E291E07A
:1004000031DF20E031E040E251E060E371E080E183
:1004100091E056DF80E191E0C4DFE9CF0CD0EBC082
:10042000E3D040F0DAD030F021F45F3F19F0CCC0D7
:10043000511115C1CFC0F0D098F39923C9F35523BA
:10044000B1F3951B550BBB27AA27621773078407C7
:1004500038F09F5F5F4F220F331F441FAA1FA9F37D
:1004600033D00E2E3AF0E0E830D091505040E6956F
:10047000001CCAF729D0FE2F27D0660F771F881FD0
:10048000BB1F261737074807AB07B0E809F0BB0BBF
:10049000802DBF01FF2793585F4F2AF09E3F5105E3
:1004A00068F092C0DCC05F3FECF3983EDCF38695C9
:1004B00077956795B795F7959F5FC9F7880F911D59
:1004C0009695879597F90895E1E0660F771F881F45
:1004D000BB1F621773078407BA0720F0621B730BF8
:1004E000840BBA0BEE1F88F7E095089504D068944A
:1004F000B111B5C0089598D088F09F5790F0B92FEA
:100500009927B751A0F0D1F0660F771F881F991F68
:100510001AF0BA95C9F712C0B13081F09FD0B1E09E
:1005200008959CC0672F782F8827B85F39F0B93FAE
:10053000CCF3869577956795B395D9F73EF490956A
:100540008095709561957F4F8F4F9F4F0895E894E8
:1005500009C097FB3EF490958095709561957F4F0B
:100560008F4F9F4F9923A9F0F92F96E9BB279395B9
:10057000F695879577956795B795F111F8CFFAF4C9
:10058000BB0F11F460FF1BC06F5F7F4F8F4F9F4FFA
:1005900016C0882311F096E911C0772321F09EE858
:1005A000872F762F05C0662371F096E8862F70E0BE
:1005B00060E02AF09A95660F771F881FDAF7880F98
:1005C0009695879597F9089597F99F6780E870E069
:1005D00060E008959FEF80EC089500240A941616B9
:1005E000170618060906089500240A941216130621
:1005F000140605060895092E0394000C11F48823AF
:1006000052F0BB0F40F4BF2B11F460FF04C06F5FCA
:100610007F4F8F4F9F4F089557FD9058440F551FA0
:1006200059F05F3F71F04795880F97FB991F61F074
:100630009F3F79F087950895121613061406551FEB
:10064000F2CF4695F1DF08C0161617061806991F57
:10065000F1CF86957105610508940895E894BB274C
:1006600066277727CB0197F908950BD0C4CFB5DF64
:1006700028F0BADF18F0952309F0A6CFABCF1124EC
:10068000EECFCADFA0F3959FD1F3950F50E0551F31
:10069000629FF001729FBB27F00DB11D639FAA27D7
:1006A000F00DB11DAA1F649F6627B00DA11D661F26
:1006B000829F2227B00DA11D621F739FB00DA11D47
:1006C000621F839FA00D611D221F749F3327A00D01
:1006D000611D231F849F600D211D822F762F6A2F9D
:1006E00011249F5750408AF0E1F088234AF0EE0F22
:1006F000FF1FBB1F661F771F881F91505040A9F72F
:100700009E3F510570F060CFAACF5F3FECF3983E5B
:10071000DCF3869577956795B795F795E7959F5F95
:10072000C1F7FE2B880F911D9695879597F908952F
:10073000EE0FFF1F0590F491E02D0994F894FFCF80
:10074000FF03FF03FF03FF03FF03FF03FF03FF0399
:00000001FF
