:100000000C9446000C9495050C9465000C946500C6
:100010000C9465000C9465000C9465000C946500CC
:100020000C9465000C9465000C9465000C946500BC
:100030000C9465000C9465000C9465000C946500AC
:100040000C9465000C9465000C9465000C9465009C
:100050000C9465000C9465000C9465000C9465008C
:100060000C9465000C9465000C9465000C9465007C
:100070000C9465000C94B1060C9465000C9465001A
:100080000C9465000C9465000C94650011241FBE4F
:10009000CFEFD0E1DEBFCDBF12E0A0E0B1E0E6E9F6
:1000A000FCE100E00BBF02C007900D92A034B10745
:1000B000D9F712E0A0E4B2E001C01D92A63CB1075E
:1000C000E1F70E9404010C94490E0C9400008FEF9C
:1000D0008ABB87BB84BB9EEF91BB9EE092B9E1E6F1
:1000E000F0E080831BBA82BB15BA1082089582E0CB
:1000F00080936A001ABE81E089BF089587E083BFBC
:1001000017BE12BE089582E080938B008AE180932F
:100110008A0084E080937D0080E49CE990938100D4
:1001200080938000089582EA8FBD8AE18EBD17BE5C
:1001300080ED97E097BD86BD1BBC1ABC19BC18BCEE
:1001400008951092900088E089B988E18AB986E024
:1001500080939500089580EC87B987E886B9089563
:100160005D9BFECF8CB908955F9BFECF8CB1089547
:100170000F931F93CF93DF93EC01BC0180E090E0DD
:1001800020EA36E841E050E00E94D50D20E137E258
:1001900040E050E00E94D50D822F805D0E94B000AB
:1001A000CE0160E177E20E94AE0D08EE13E0B801E7
:1001B0000E94AE0D862F805D0E94B000CE01B80176
:1001C0000E94AE0D04E610E0B8010E94AE0D862F2D
:1001D000805D0E94B000CE01B8010E94AE0D0AE021
:1001E00010E0B8010E94AE0D862F805D0E94B00025
:1001F000CE01B8010E94AE0D805D0E94B000DF917B
:10020000CF911F910F9108950E9467000E947E0078
:100210000E9483000E9477000E94AB000E94A10010
:100220000E949300789483E090E020914002309106
:10023000410224303105CCF3909341028093400277
:10024000F4CF2F923F924F925F926F927F928F9254
:100250009F92AF92BF92CF92DF92EF92FF920F9355
:100260001F93DF93CF9300D000D000D0CDB7DEB77F
:100270001092430210924202B6ECAB2EA0E19A2EED
:1002800075EC872E60E4762E57EC652E40E8542EF0
:1002900030EC332E22E0222EFC83EB839E838D8371
:1002A0007DC180914202909143028330910509F40F
:1002B0009DC0843091055CF48130910509F442C001
:1002C000823091050CF067C0009791F05EC18530D7
:1002D000910509F4DEC0853091050CF4B2C086307A
:1002E000910509F401C18730910509F04EC124C17F
:1002F000BB24B394BBBA82E08A95F1F700C086B103
:10030000806C86B9EB81FC818D819E81349BFECF10
:10031000FC83EB839E838D8384B190E090934702AE
:1003200080934602809146029091470245B0F42C9A
:10033000EE248E0D9F1D90934702809346021BBAB8
:1003400091EC52C02BBAE2E0EA95F1F700C086B119
:10035000806C86B9EB81FC818D819E81349BFECFC0
:10036000FC83EB839E838D8384B190E0909349025C
:1003700080934802809148029091490245B0142D23
:1003800000E0800F911F90934902809348021BBAAE
:10039000F2ECF7B9FAC094E0B92EBBBA82E08A95C4
:1003A000F1F700C086B1806C86B9EB81FC818D814C
:1003B0009E81349BFECFFC83EB839E838D8384B12F
:1003C00090E090934B0280934A0280914A02909170
:1003D0004B0245B0342D20E0820F931F90934B02C7
:1003E00080934A021BBA93EC97B9CFC0E8E0EBBB0D
:1003F000F2E0FA95F1F700C086B1806C86B9EB8126
:10040000FC818D819E81349BFECFFC83EB839E8398
:100410008D8384B190E090934D0280934C02809143
:100420004C0290914D0245B0542D40E0840F951F31
:1004300090934D0280934C021BBA84ECB82EB7B84F
:10044000A4C09BBA82E08A95F1F700C086B1806CA7
:1004500086B9EB81FC818D819E81349BFECFFC832C
:10046000EB839E838D8384B190E090934F028093C1
:100470004E0280914E0290914F0245B0742D60E083
:10048000860F971F90934F0280934E021BBA87B836
:100490007CC090E29BBBE2E0EA95F1F700C086B138
:1004A000806C86B9EB81FC818D819E81349BFECF6F
:1004B000FC83EB839E838D8384B190E09093510203
:1004C00080935002809150029091510245B04C822D
:1004D0001B82CB80DC808C0D9D1D909351028093FC
:1004E00050021BBAA7B851C07BBA82E08A95F1F7D7
:1004F00000C086B1806C86B9EB81FC818D819E81C4
:10050000349BFECFFC83EB839E838D8384B190E08C
:100510009093530280935202809152029091530221
:1005200045B0B42DA0E08A0F9B1F90935302809397
:1005300052021BBA67B829C05BBA92E09A95F1F7EC
:1005400000C086B1806C86B9EB81FC818D819E8173
:10055000349BFECFFC83EB839E838D8384B190E03C
:100560009093550280935402E0915402F091550209
:1005700045B04E821D82CD80DE80EC0DFD1DF093D6
:100580005502E09354021BBA37B880914202909111
:10059000430201969093430280934202809142026B
:1005A00090914302883091050CF47BCE26960FB6CD
:1005B000F894DEBF0FBECDBFCF91DF911F910F9199
:1005C000FF90EF90DF90CF90BF90AF909F908F9073
:1005D0007F906F905F904F903F902F900895109272
:1005E00043021092420261C0E0914202F091430244
:1005F000EE0FFF1FEA5AFD4F20813181E091420248
:10060000F0914302EE0FFF1FEA5BFD4F8081918165
:1006100028173907ACF4E0914202F0914302A0910F
:100620004202B0914302AA0FBB1FAA5BBD4F8D913E
:100630009C911197EE0FFF1FEA5AFD4F9183808323
:10064000E0914202F0914302EE0FFF1FE050FF4F96
:1006500020813181E0914202F0914302EE0FFF1FB1
:10066000EA5BFD4F8081918182179307ACF4E091A2
:100670004202F0914302A0914202B0914302AA0FBC
:10068000BB1FAA5BBD4F8D919C911197EE0FFF1F71
:10069000E050FF4F9183808380914202909143020A
:1006A000019690934302809342028091420290917E
:1006B0004302883091050CF497CF0895AF92BF9212
:1006C000CF92DF92EF92FF920F931F93CF93DF931E
:1006D00010924302109242025DC0E0914202F091FA
:1006E0004302EE0FFF1FEA5AFD4F60817181E091D6
:1006F0004202F0914302EE0FFF1FEA5BFD4F808143
:100700009181E0914202F0914302EE0FFF1FEA5AFD
:10071000FD4FC081D181E0914202F0914302EE0F82
:10072000FF1FE050FF4FC080D180A0904202B090E8
:100730004302681B790B882777FD8095982F0E94CC
:10074000120B20E030E048EC52E40E94DA087B0112
:100750008C01CC19DD09BE01882777FD8095982F83
:100760000E94120B9B01AC01C801B7010E94D40981
:100770000E94720BF501EE0FFF1FEA59FD4F7183C6
:1007800060838091420290914302019690934302CC
:1007900080934202809142029091430288309105F9
:1007A0000CF49BCFDF91CF911F910F91FF90EF90B1
:1007B000DF90CF90BF90AF900895DF93CF93CDB7E8
:1007C000DEB760970FB6F894DEBF0FBECDBFDE0177
:1007D0001196E8E2F1E080E101900D928150E1F79D
:1007E00010924302109242029E012F5F3F4F2FC092
:1007F000E0914202F0914302A0914202B091430283
:10080000AA0FBB1FAA59BD4F6D917C91A0914202C6
:10081000B0914302AA0FBB1FA20FB31F4D915C9171
:100820001197649FC001659F900D749F900D1124D6
:10083000EE0FFF1FEA58FD4F9183808380914202A3
:1008400090914302019690934302809342028091DB
:100850004202909143028830910554F260960FB69F
:10086000F894DEBF0FBECDBFCF91DF9108951092F7
:1008700043021092420260E070E018C0E091420230
:10088000F0914302EE0FFF1FEA59FD4F80819181E5
:100890008C33910514F06F5F7F4F809142029091ED
:1008A0004302019690934302809342028091420258
:1008B00090914302883091050CF3109243021092FC
:1008C000420280E090E023C0E0914202F0914302B6
:1008D000EE0FFF1FEA59FD4F208131812C33310586
:1008E00064F0E0914202F0914302EE0FFF1FEA58DC
:1008F000FD4F20813181820F931F20914202309160
:1009000043022F5F3F4F30934302209342022091D6
:1009100042023091430228303105B4F2611571056D
:1009200061F480E090E0DC0180938602909387027E
:10093000A0938802B093890208950E94C20D88276F
:1009400077FD8095982F0E94120B6093860270931A
:100950008702809388029093890208959C01B901CF
:10096000882777FD8095982F37FD08C0AC980E94A6
:10097000120B2CEE31E548E35EE307C0AC980E9411
:10098000120B2CEE31E548E35EEB0E94DA080E9480
:1009900006077BBD6ABD08959B01B901882777FDD5
:1009A0008095982F37FD09C0AD9AAE980E94120B22
:1009B0002CEE31E548E35EE308C0AD9AAE980E94A4
:1009C000120B2CEE31E548E35EEB0E94DA080E9440
:1009D000060779BD68BD08956F927F928F929F92AE
:1009E000AF92BF92CF92DF92EF92FF920F931F933D
:1009F00060918602709187028091880290918902AD
:100A000020E030E0A9010E94820A18167CF0609173
:100A1000860270918702809188029091890220E07D
:100A200030E0A9010E94E20A87FF68C060911001CE
:100A30007091110180911201909113012091860211
:100A4000309187024091880250918902E090100114
:100A5000F090110100911201109113016090860233
:100A60007090870280908802909089020E94A90865
:100A70000E94720B5B016C01C801B701A4019301D4
:100A80000E947C080E94720B9B01AC01C501B90158
:100A90000E94AE04609110017091110180911201C9
:100AA0009091130120918602309187024091880233
:100AB00050918902E0901001F09011010091120113
:100AC00010911301609086027090870280908802D6
:100AD000909089020E94A9080E94720B5B016C0130
:100AE000C801B701A40193010E947C080E94720B07
:100AF0009B01AC01C501B9010E94CC041F910F916B
:100B0000FF90EF90DF90CF90BF90AF909F908F902D
:100B10007F906F90089583E70E94B000809140021B
:100B2000909141020E94B80008951F920F920FB653
:100B30000F920BB60F9211242F933F934F935F9315
:100B40006F937F938F939F93AF93BF93EF93FF9395
:100B5000F8940E948B058091400290914102019689
:100B600090934102809340027894FF91EF91BF915E
:100B7000AF919F918F917F916F915F914F913F9135
:100B80002F910F900BBE0F900FBE0F901F901895D6
:100B90008DE40E94B00081E60E94B00088E70E94C8
:100BA000B00089E00E94B00010924302109242020D
:100BB00018C0E0914202F0914302EE0FFF1FEA5A83
:100BC000FD4F808191810E94B80089E00E94B000B1
:100BD0008091420290914302019690934302809348
:100BE00042028091420290914302883091050CF3B9
:100BF0008AE00E94B0008DE00E94B0008EE40E9466
:100C0000B0008FE60E94B0008DE60E94B00089E03F
:100C10000E94B000109243021092420218C0E0916C
:100C20004202F0914302EE0FFF1FEA59FD4F80810F
:100C300091810E94B80089E00E94B0008091420238
:100C400090914302019690934302809342028091D7
:100C5000420290914302883091050CF38AE00E9491
:100C6000B0008DE00E94B00083E50E94B00085E6F0
:100C70000E94B0008EE60E94B00089E00E94B000A1
:100C8000609186027091870280918802909189021A
:100C900020E030E0A9010E94B20A87FD0FC06091F8
:100CA00086027091870280918802909189020E9449
:100CB0000607DC01CB010E94B80033C08091860298
:100CC00090918702A0918802B0918902B0588093D8
:100CD000860290938702A0938802B09389028DE2E6
:100CE0000E94B00060918602709187028091880214
:100CF000909189020E940607DC01CB010E94B80096
:100D00008091860290918702A0918802B091890219
:100D1000B0588093860290938702A0938802B09384
:100D2000890289E00E94B0008DE40E94B0008FE645
:100D30000E94B00084E70E94B00089E00E94B000E9
:100D400088B599B50E94B8008AE00E94B0008DE095
:100D50000E94B0008AE00E94B0008DE00E94B000C6
:100D600008951F920F920FB60F920BB60F92112497
:100D70002F933F934F935F936F937F938F939F93A3
:100D8000AF93BF93EF93FF93F894809140029091BB
:100D900041028130910579F0823091051CF4009771
:100DA00041F020C08230910569F083309105D1F483
:100DB0000CC084E108C080E182BB0E9421010E9436
:100DC000EF020EC084E082BB0DC012BA0E94210166
:100DD0000E945E030E94DD030E9437040E94EC041F
:100DE0000E94C8057894FF91EF91BF91AF919F91B8
:100DF0008F917F916F915F914F913F912F910F90C4
:100E00000BBE0F900FBE0F901F901895EF92FF92A0
:100E10000F931F937B018C0120E030E040E05FE402
:100E20000E94B20A87FD11C0C801B70120E030E07E
:100E300040E05FE40E94A9080E94720B9B01AC0194
:100E4000205030404040504806C0C801B7010E94C1
:100E5000720B9B01AC01B901CA011F910F91FF9068
:100E6000EF900895A0E0B0E0E8E3F7E00C94160EF0
:100E7000FC01EA018081823008F438C1DB019C91D9
:100E8000923008F430C1843059F4943009F02EC106
:100E9000918111968C911197981709F021C126C163
:100EA000943009F420C19230B1F4823009F01EC1AF
:100EB000CA01AF0128E0DA010D90AD01DC010D920D
:100EC000CD012150C1F7DB0111968C9111979181D1
:100ED000892389830AC1823009F405C1C280D38085
:100EE000DB0112966D907C901397248135814681A9
:100EF00057811496ED90FD900D911C911797C601A6
:100F0000861997095C0197FF04C0AA24BB24A81A7C
:100F1000B90AB0E2AB16B1040CF061C0181619069C
:100F20006CF5370148010A2C04C096948794779495
:100F300067940A94D2F781E090E0A0E0B0E00A2C38
:100F400004C0880F991FAA1FBB1F0A94D2F70197EC
:100F5000A109B1098E219F21A023B123EE24FF24F2
:100F60008701E3940097A105B10519F4EE24FF244D
:100F70008701E628F728082919293CC00097D1F1F4
:100F8000CA0CDB1C39014A010A2C04C096948794D0
:100F9000779467940A94D2F781E090E0A0E0B0E003
:100FA0000A2C04C0880F991FAA1FBB1F0A94D2F7EE
:100FB0000197A109B10982239323A423B52321E03A
:100FC00030E040E050E00097A105B10519F420E0C1
:100FD00030E0A90126293729482959290BC06C146A
:100FE0007D0424F4EE24FF24870104C0630120E083
:100FF00030E0A9018181FB019181891709F445C085
:10100000882349F0D801C701821B930BA40BB50BB1
:101010009C01AD0104C02E193F09400B510B57FD37
:1010200004C01982DB82CA820BC081E08983DB8223
:10103000CA8250954095309521953F4F4F4F5F4F55
:101040002C833D834E835F830DC0880F991FAA1F99
:10105000BB1F8C839D83AE83BF838A819B81019755
:101060009B838A838C819D81AE81BF819C01AD0170
:1010700021503040404050402F3FEFEF3E07EFEF10
:101080004E07EFE35E0708F30BC08983DB82CA8259
:101090002E0D3F1D401F511F2C833D834E835F83C8
:1010A00083E088832C813D814E815F8157FF1DC085
:1010B000DA01C90181709070A070B07056954795A3
:1010C00037952795822B932BA42BB52B8C839D834F
:1010D000AE83BF838A819B8101969B838A8305C0EF
:1010E000E8E3F1E003C0FB0101C0FE01CF01CDB791
:1010F000DEB7EEE00C94320EA0E2B0E0E2E8F8E0F9
:101100000C941E0E69837A838B839C832D833E838C
:101110004F83588789E0E82EF12CEC0EFD1ECE019E
:101120000196B7010E94EC0C8E010F5E1F4FCE019D
:101130000596B8010E94EC0CC701B801AE01475EEC
:101140005F4F0E9432070E941E0CA096E6E00C94AE
:101150003A0EA0E2B0E0EFEAF8E00C941E0E6983CC
:101160007A838B839C832D833E834F8358878E01A4
:10117000075F1F4FCE010196B8010E94EC0C91E170
:10118000E92EF12CEC0EFD1ECE010596B7010E9452
:10119000EC0C8A8991E089278A8BC801B701AE01DE
:1011A000475E5F4F0E9432070E941E0CA096E6E049
:1011B0000C943A0EA0E2B0E0E0EEF8E00C94120ECF
:1011C00069837A838B839C832D833E834F835887E7
:1011D000CE010196BE01675F7F4F0E94EC0CCE01ED
:1011E0000596BE016F5E7F4F0E94EC0C9985923090
:1011F00078F089898230C0F0943019F4823041F45B
:10120000CBC0843019F4923079F4C6C0923051F4D6
:1012100081E02A859A89291709F480E08A87CE011E
:101220000996BCC0823051F481E02A859A89291739
:1012300009F480E08A8BCE014196B0C06D847E8433
:101240008F849888ED88FE880F89188DE0E2F0E0A1
:1012500080E090E0DC01AA24BB24650120E030E0BE
:10126000A901B3016170707061157105D1F02E0D87
:101270003F1D401F511F15012601280E391E4A1E11
:101280005B1E81E090E0A0E0B0E02E153F05400736
:10129000510718F080E090E0DC01820D931DA41D41
:1012A000B51DAA0CBB1CCC1CDD1C17FF09C061E0DE
:1012B000262E312C412C512CA228B328C428D52805
:1012C000319749F0EE0CFF1C001F111F9694879474
:1012D00077946794C6CF6B897C89EB85FC856E0F0C
:1012E0007F1F6E5F7F4F7C8F6B8F61E0EA857A890D
:1012F000E71709F460E06A8F6B8D7C8D10C0FC01EC
:10130000E170F070309729F05695479537952795FD
:101310005068B695A795979587956F5F7F4FB7FDF6
:10132000EECF0CC0880F991FAA1FBB1F57FD81600D
:10133000220F331F441F551F615070408030E0E082
:101340009E07E0E0AE07E0E4BE0760F36B8F7C8FA2
:101350006FE7E62EF12C012D112DE822F9220A2348
:101360001B2360E4E616F1040105110561F487FD15
:101370000AC0211531054105510529F0805C9F4FB8
:10138000AF4FBF4F80788D8F9E8FAF8FB8A383E014
:10139000898FCE01499602C088E391E00E941E0C1D
:1013A000A096E2E10C942E0EA8E1B0E0EAEDF9E09F
:1013B0000C941A0E69837A838B839C832D833E83DE
:1013C0004F8358878E01075F1F4FCE010196B801EA
:1013D0000E94EC0C81E1E82EF12CEC0EFD1ECE01FA
:1013E0000596B7010E94EC0C9985923008F483C0F1
:1013F0008989823008F47BC02A853A8923272A8785
:10140000943011F0923021F4981709F06CC071C03B
:10141000843039F41D861E861F86188A1C861B861A
:101420006AC0823019F484E0898765C08B859C8509
:101430002B893C89821B930B9C878B872D853E854E
:101440004F855889ED88FE880F89188D2E153F0528
:101450004007510738F4220F331F441F551F0197CF
:101460009C878B876FE170E0A12CB12CC12CA0E48C
:10147000DA2E80E090E0DC012E153F054007510791
:1014800040F08A299B29AC29BD292E193F09400B20
:10149000510BD694C794B794A794220F331F441FBF
:1014A000551F6150704041F76FE7E62EF12C012D7A
:1014B000112DE822F9220A231B2360E4E616F10429
:1014C0000105110561F487FD0AC0211531054105AB
:1014D000510529F0805C9F4FAF4FBF4F80788D87BB
:1014E0009E87AF87B88B8E01075F1F4F04C08701AF
:1014F00002C008E311E0C8010E941E0C6896EAE0F1
:101500000C94360EA8E1B0E0E8E8FAE00C941E0E68
:1015100069837A838B839C832D833E834F83588793
:101520008E01075F1F4FCE010196B8010E94EC0C9F
:1015300081E1E82EF12CEC0EFD1ECE010596B701DF
:101540000E94EC0C8985823040F08989823028F035
:10155000C801B7010E94550D01C08FEF6896E6E003
:101560000C943A0EA8E1B0E0E8EBFAE00C941E0E01
:1015700069837A838B839C832D833E834F83588733
:101580008E01075F1F4FCE010196B8010E94EC0C3F
:1015900081E1E82EF12CEC0EFD1ECE010596B7017F
:1015A0000E94EC0C8985823040F08989823028F0D5
:1015B000C801B7010E94550D01C08FEF6896E6E0A3
:1015C0000C943A0EA8E1B0E0E8EEFAE00C941E0E9E
:1015D00069837A838B839C832D833E834F835887D3
:1015E0008E01075F1F4FCE010196B8010E94EC0CDF
:1015F00081E1E82EF12CEC0EFD1ECE010596B7011F
:101600000E94EC0C8985823040F08989823028F074
:10161000C801B7010E94550D01C081E06896E6E05F
:101620000C943A0EA8E0B0E0E8E1FBE00C941E0E4A
:101630007B018C0183E08983D801C7018827B7FD2E
:1016400083959927AA27BB27282F8A83E114F104C1
:101650000105110519F482E0898337C08EE190E01D
:101660009C838B83222389F080E0E81680E0F806D3
:1016700080E0080780E8180769F110950095F0945C
:10168000E094E11CF11C011D111DED82FE820F830F
:101690001887C801B7010E94C40B9C01215030403B
:1016A0001216130694F4022E04C0EE0CFF1C001F49
:1016B000111F0A94D2F7ED82FE820F8318878EE104
:1016C00090E0821B930B9C838B83CE0101960E943A
:1016D0001E0C04C060E070E080E09FEC2896E6E01D
:1016E0000C943A0EACE0B0E0E8E7FBE00C94220E7C
:1016F00069837A838B839C83CE010196BE016B5FE5
:101700007F4F0E94EC0C8D81823081F1823070F12C
:10171000843021F48E81882369F10AC02F813885B5
:1017200037FD24C06E812F3131053CF0662311F165
:1017300020E030E040E050E821C08EE190E0821BE4
:10174000930B29853A854B855C8504C05695479552
:10175000379527958A95D2F7662381F05095409565
:10176000309521953F4F4F4F5F4F08C020E030E04C
:10177000A90104C02FEF3FEF4FEF5FE7B901CA01A6
:101780002C96E2E00C943E0EAF92BF92CF92DF9285
:10179000EF92FF920F931F937B018C0180E0E8167C
:1017A00080E0F80681E0080780E0180758F4EFEFC2
:1017B000EE16F1040105110509F090F480E090E0C7
:1017C000DC0117C0F0E0EF16F0E0FF06F0E00F07D5
:1017D000F1E01F0750F480E190E0A0E0B0E009C024
:1017E00088E090E0A0E0B0E004C088E190E0A0E0F4
:1017F000B0E020E230E040E050E0281B390B4A0B1B
:101800005B0B5701680104C0D694C794B794A794A2
:101810008A95D2F7D601C501805C9E4FFC0180817C
:10182000281B310941095109C9011F910F91FF90EE
:10183000EF90DF90CF90BF90AF900895EF92FF921E
:101840000F931F93CF93DF93FC0124813581468151
:10185000578161818081823020F44061EFEFF0E0B8
:10186000A3C0843009F49BC0823009F492C02115D2
:1018700031054105510509F48FC00280F381E02D47
:101880008FEFE238F8070CF05AC0C2E8DFEFCE1B4A
:10189000DF0BCA31D1056CF579018A010C2E04C029
:1018A00016950795F794E7940A94D2F781E090E0B3
:1018B000A0E0B0E00C2E04C0880F991FAA1FBB1F28
:1018C0000A94D2F70197A109B10982239323A42393
:1018D000B52321E030E040E050E00097A105B105DC
:1018E00019F420E030E0A9012E293F29402B512B8B
:1018F00003C020E030E0A901DA01C9018F779070C0
:10190000A070B07080349105A105B10539F427FFAE
:1019100009C0205C3F4F4F4F5F4F04C0215C3F4FD9
:101920004F4F5F4FE1E0F0E0203080E0380780E08B
:10193000480780E4580728F5E0E0F0E022C0E038EE
:10194000F1056CF5E158FF4FDA01C9018F7790700E
:10195000A070B07080349105A105B10539F427FF5E
:1019600009C0205C3F4F4F4F5F4F04C0215C3F4F89
:101970004F4F5F4F57FF05C05695479537952795B1
:10198000319687E056954795379527958A95D1F7F3
:101990000BC0E0E0F0E005C0E0E0F0E005C0EFEFF4
:1019A000F0E020E030E0A9018E2F87958827879509
:1019B000942F9F77679566276795E695E22EA92F66
:1019C000A82BFE2FF62B622F732F8A2F9F2FCDB7B8
:1019D000DEB7E6E00C943A0EDC01FB012C91119687
:1019E0003C91119712968C911297482F4F7750E0A7
:1019F000982F991F9927991F13966C911397862FEB
:101A0000880F892B90E0661F6627661F6183009709
:101A100039F5211531054105510511F482E029C040
:101A200082E89FEF9383828367E0220F331F441F76
:101A3000551F6A95D1F783E0808309C0220F331FB9
:101A4000441F551F828193810197938382832030A5
:101A500080E0380780E0480780E4580778F320C02A
:101A60008F3F910579F4211531054105510519F490
:101A700084E08083089544FF03C081E0808310C028
:101A800010820EC08F5790409383828383E08083BF
:101A900087E0220F331F441F551F8A95D1F75064EA
:101AA00024833583468357830895FC01DB019081AD
:101AB000923008F449C08C91823008F445C09430CB
:101AC00051F461818430B1F511962C91119730E079
:101AD000261B310941C0843021F0923041F482301C
:101AE000B1F111968C9111978823A1F12DC06181DC
:101AF000823001F111968C9111976817D9F42281E7
:101B0000338112968D919C9113978217930794F0CD
:101B100028173907BCF024813581468157811496F6
:101B20008D919D910D90BC91A02D82179307A407D4
:101B3000B50718F4662341F00DC0281739074A0786
:101B40005B0728F4662331F021E030E005C020E097
:101B500030E002C02FEF3FEFC9010895AA1BBB1B65
:101B600051E107C0AA1FBB1FA617B70710F0A61B9D
:101B7000B70B881F991F5A95A9F780959095BC01BE
:101B8000CD01089597FB092E07260AD077FD04D0D2
:101B9000E5DF06D000201AF4709561957F4F089517
:101BA000F6F7909581959F4F089597FB092E05268E
:101BB0000ED057FD04D014D00AD0001C38F4509534
:101BC0004095309521953F4F4F4F5F4F0895F6F761
:101BD00090958095709561957F4F8F4F9F4F089599
:101BE000A1E21A2EAA1BBB1BFD010DC0AA1FBB1F21
:101BF000EE1FFF1FA217B307E407F50720F0A21B93
:101C0000B30BE40BF50B661F771F881F991F1A94FF
:101C100069F760957095809590959B01AC01BD0129
:101C2000CF0108952F923F924F925F926F927F92D1
:101C30008F929F92AF92BF92CF92DF92EF92FF92DC
:101C40000F931F93CF93DF93CDB7DEB7CA1BDB0B88
:101C50000FB6F894DEBF0FBECDBF09942A8839882D
:101C600048885F846E847D848C849B84AA84B98434
:101C7000C884DF80EE80FD800C811B81AA81B98140
:101C8000CE0FD11D0FB6F894DEBF0FBECDBFED0154
:061C90000895F894FFCF57
:101C9600FF03FF03FF03FF03FF03FF03FF03FF032E
:101CA60000007A450000A040CDCCCC3DCDCC4C3DCB
:101CB6000000A0400000A0405A004B0028000A0087
:101CC600F6FFD8FFB5FFA6FF0000000000000000E9
:101CD60000010202030303030404040404040404CD
:101CE600050505050505050505050505050505059E
:101CF600060606060606060606060606060606067E
:101D0600060606060606060606060606060606066D
:101D1600070707070707070707070707070707074D
:101D2600070707070707070707070707070707073D
:101D3600070707070707070707070707070707072D
:101D4600070707070707070707070707070707071D
:101D560008080808080808080808080808080808FD
:101D660008080808080808080808080808080808ED
:101D760008080808080808080808080808080808DD
:101D860008080808080808080808080808080808CD
:101D960008080808080808080808080808080808BD
:101DA60008080808080808080808080808080808AD
:101DB600080808080808080808080808080808089D
:101DC600080808080808080808080808080808088D
:00000001FF
