:100000000C9446000C9465000C9465000C946500FB
:100010000C9465000C94D6000C9465000C9465005B
:100020000C9465000C9465000C9465000C946500BC
:100030000C9465000C9465000C9465000C94A90167
:100040000C9465000C9465000C9465000C9465009C
:100050000C9465000C9465000C9465000C9465008C
:100060000C9465000C9465000C9465000C9465007C
:100070000C9465000C94F5000C9465000C946500DC
:100080000C9465000C9465000C94650011241FBE4F
:10009000CFEFD0E1DEBFCDBF12E0A0E0B1E0E6ECF3
:1000A000F6E100E00BBF02C007900D92A834B10743
:1000B000D9F712E0A8E4B2E001C01D92AF39B10750
:1000C000E1F70E94AD000C94610B0C9400008FE0EE
:1000D0008ABB8FEF84BB81BB1092610082E082B942
:1000E0001BBA12BA089510926A0082E08ABF80E1BA
:1000F00089BF08958DE083BF17BE12BE11BE08955B
:1001000082E080938B008BE180938A0084E080936F
:100110007D0088E893E190938100809380000895AA
:1001200082EA8FBD8CE18EBD17BE80ED97E097BD52
:1001300086BD1BBC1ABC19BC18BC08951092900057
:1001400088E089B988E18AB986E0809395000895AE
:1001500080EC87B987E886B908958FE08ABB8FEF76
:1001600084BB81BB1092610092E092B91BBA12BAB3
:1001700010926A009ABF80E189BF8DE083BF17BEED
:1001800012BE11BE90938B008BE180938A0084E0B5
:1001900080937D0088E893E19093810080938000B4
:1001A00080EC87B987E886B97894FFCF1F920F92C9
:1001B0000FB60F9211248F939F93809148029091D4
:1001C000490201969093490280934802049734F0C3
:1001D00083E090E090934902809348029F918F9131
:1001E0000F900FBE0F901F9018951F920F920FB691
:1001F0000F920BB60F9211242F933F934F935F935F
:100200006F937F938F939F93AF93BF93EF93FF93DE
:10021000F894809148029091490281309105A1F0B3
:10022000823091051CF4892B41F07FC0823091050A
:10023000D1F0039709F079C019C081E08BBB87B773
:100240008D7F87BF15BA71C082E08BBB8AE492E0D4
:100250000E9452028AE592E060E071E04AE452E0D6
:100260000E94290362C084E08BBB5FC088E08BBB27
:1002700010928B0210928A028AE492E00E9452024B
:100280008AE692E06AE472E04AE552E020E031E07A
:100290000E944F038AE892E06AE772E04AE652E081
:1002A0000E94C80387B7826087BF80917E029091C9
:1002B0007F02892B11F58091840290918502892B10
:1002C000E1F480917A0290917B02892BB1F08091C8
:1002D000880290918902892B81F080918C02909103
:1002E0008D02029721F4109249021092480281E097
:1002F00090E090938D0280938C0280918C0290917B
:100300008D02019791F480917A0290917B02892B62
:1003100061F48091880290918902892B31F482E006
:1003200090E090938D0280938C027894FF91EF91EE
:10033000BF91AF919F918F917F916F915F914F91FD
:100340003F912F910F900BBE0F900FBE0F901F90FB
:1003500018951F920F920FB60F920BB60F921124A1
:10036000EF92FF920F931F932F933F934F935F93BF
:100370006F937F938F939F93AF93BF93CF93DF93AD
:10038000EF93FF93C0918A02D0918B026627772763
:100390006C1B7D0B882777FD8095982F0E94B508F0
:1003A0007B018C0160938E0270938F028093900288
:1003B0009093910220919202309193024091940285
:1003C000509195020E94B106609396027093970235
:1003D0008093980290939902E0929202F092930295
:1003E000009394021093950220E030E040E05FE338
:1003F0000E940F079B01AC01C801B7010E94E206F1
:1004000020E030E040E251E40E9409089B01AC0189
:1004100060939A0270939B0280939C0290939D023A
:10042000209731F48EE992E060E048EC50E01FC084
:100430001C161D0674F460E070E088E493E40E94EA
:10044000B1060E9413099B01AC018EE992E062E0C3
:100450000DC020E030E048E453E40E94E2060E9430
:1004600013099B01AC018EE992E063E0A9010E94AF
:100470002704FF91EF91DF91CF91BF91AF919F91B1
:100480008F917F916F915F914F913F912F911F912C
:100490000F91FF90EF900F900BBE0F900FBE0F903B
:1004A0001F9018958F929F92AF92BF92CF92DF923A
:1004B000EF92FF920F931F93FC0120E030E018E0D1
:1004C000812E41E0B4EC9B2EA0E2BA2E76ECA72E52
:1004D00060E1C62E55ECE52E90E4D92E87ECF82E7F
:1004E00010E800ECA2E0B2EC74E063EC51EC2330D5
:1004F000310509F44EC02430310554F42130310562
:1005000041F122303105ACF52115310591F090C053
:100510002530310509F45DC0253031050CF449C0A2
:100520002630310509F465C02730310509F080C057
:1005300070C042BB842F8A95F1F786B1806C86B972
:10054000349BFECF84B195B19183808312BA57B9A1
:100550006FC0A2BB842F8A95F1F786B1806C86B9F3
:10056000349BFECF84B195B19383828312BAB7B91D
:100570005FC072BB842F8A95F1F786B1806C86B913
:10058000349BFECF84B195B19583848312BA67B949
:100590004FC082BA842F8A95F1F786B1806C86B9F4
:1005A000349BFECF84B195B19783868312BA97B8F6
:1005B0003FC0C2BA842F8A95F1F786B1806C86B9A4
:1005C000349BFECF84B195B19187808712BAE7B88A
:1005D0002FC0B2BA842F8A95F1F786B1806C86B9A4
:1005E000349BFECF84B195B19387828712BAA7B8A6
:1005F0001FC0D2BA842F8A95F1F786B1806C86B974
:10060000349BFECF84B195B19587848712BAF7B831
:100610000FC012BB842F8A95F1F786B1806C86B922
:10062000349BFECF84B195B19787868712BA07B9FC
:100630002F5F3F4F2830310509F059CF1F910F919F
:10064000FF90EF90DF90CF90BF90AF909F908F90F2
:100650000895CF93DF93EC01DA01FB0140E050E015
:100660002D913C911197888199818217930714F4F9
:10067000398328832D913C9111978081918128178E
:10068000390714F4318320834F5F5F4F229612960F
:1006900032964830510521F7DF91CF9108952F927E
:1006A0003F924F925F926F927F928F929F92AF9202
:1006B000BF92CF92DF92EF92FF920F931F93DF933F
:1006C000CF9300D000D0CDB7DEB79A8389831B01CA
:1006D0002A0139011C821B82EB81FC81E40DF51D8E
:1006E000E080F18089809A808B819C81880E991EA0
:1006F000FC01E20DF31D80819181B701681B790B2C
:10070000882777FD8095982F0E94B50820E030E07B
:1007100048EC52E40E940F075B016C01EB81FC8105
:10072000E60DF71D80819181E81AF90A0027F7FC90
:100730000095102FC801B7010E94B5089B01AC01BC
:10074000C601B5010E9409080E941309F4017183D2
:1007500060838B819C8102969C838B83409709F0F8
:10076000BBCF0F900F900F900F90CF91DF911F9103
:100770000F91FF90EF90DF90CF90BF90AF909F9040
:100780008F907F906F905F904F903F902F90089543
:10079000CF92DF92EF92FF920F931F93DF93CF934D
:1007A000CDB7DEB760970FB6F894DEBF0FBECDBFF2
:1007B0008C016A01DE011196E0E1F1E080E1019037
:1007C0000D928150E1F7AB0160E070E0A0E0B0E095
:1007D0007E010894E11CF11CF601EA0FFB1F8081E9
:1007E0009181CC9794F0F701EA0FFB1F20813181B2
:1007F000FA0131832083F80180819181820F931F58
:10080000918380836F5F7F4F03C0FA011182108252
:1008100012964E5F5F4FA031B105F1F6611571057B
:1008200039F0F801808191810E94170B71836083F8
:1008300060960FB6F894DEBF0FBECDBFCF91DF91AB
:100840001F910F91FF90EF90DF90CF900895FC01E2
:1008500041BF6230C9F0633049F16623E1F5808120
:100860008A3661F08B3618F4893561F405C0853914
:1008700049F0863A39F404C08AE62CC086EA2AC0D8
:1008800085E928C089E526C08081863059F0873007
:1008900058F0893019F08A3039F402C08AE01AC061
:1008A00086E018C085E016C089E014C080818036DB
:1008B00061F0813618F4803561F405C0803949F063
:1008C000803A39F404C080E605C080EA03C080E9BC
:1008D00001C080E58083808185BB0895EF92FF92FF
:1008E0000F931F93DF93CF93CDB7DEB760970FB60B
:1008F000F894DEBF0FBECDBF8B01DE011196E0E3A1
:10090000F1E020E101900D922150E1F70097D9F438
:1009100020E030E0E0E0F0E0DE01119640EE5EE243
:100920000EC0EE0FFF1FEA0FFB1F808185BB2F5FFC
:100930003F4FF901E370F070CA010197F1F72017FA
:1009400031077CF323C0019709F520E030E040E057
:1009500050E097E0E92EF12CBE016F5F7F4FA0EED3
:10096000BEE211C0F701E41BF50BEE0FFF1FE60F0F
:10097000F71F808185BB2F5F3F4FA90143705070E7
:10098000CD010197F1F72017310764F360960FB698
:10099000F894DEBF0FBECDBFCF91DF911F910F91B5
:1009A000FF90EF900895EF92FF920F931F93DF93C4
:1009B000CF93CDB7DEB760970FB6F894DEBF0FBE0A
:1009C000CDBF8B01DE011196E0E2F1E020E1019064
:1009D0000D922150E1F70097D9F420E030E0E0E0FB
:1009E000F0E0DE01119640EE5EE20EC0EE0FFF1F5A
:1009F000EA0FFB1F808185BB2F5F3F4FF901E77036
:100A0000F070CA010197F1F7201731077CF323C07A
:100A1000019709F520E030E040E050E097E0E92E52
:100A2000F12CBE016F5F7F4FA0EEBEE211C0F70157
:100A3000E41BF50BEE0FFF1FE60FF71F808185BB50
:100A40002F5F3F4FA90147705070CD010197F1F71B
:100A50002017310764F360960FB6F894DEBF0FBE1F
:100A6000CDBFCF91DF911F910F91FF90EF9008952F
:100A70005D9BFECF8CB908955F9BFECF8CB108952E
:100A80009C015D9BFECFC90168EE73E00E94030BE1
:100A900064E670E00E94030B605D6CB95D9BFECF65
:100AA000C90164E670E00E94030B6AE070E00E94F6
:100AB000030B605D6CB95D9BFECFC9016AE070E01D
:100AC0000E94030B805D8CB90895A0E0B0E0EBE6D6
:100AD000F5E00C942A0BDC012B01FA019C91923079
:100AE00008F439C1EB018881823008F433C19430B5
:100AF00069F4843009F02FC111969C911197898176
:100B0000981709F428C1A0E4B1E025C1843009F4A4
:100B100021C18230A9F4923009F01DC19A01AD01C2
:100B200088E0EA010990AE01E90109929E01815035
:100B3000C1F7E201898111969C918923818308C1C3
:100B4000923009F407C112962D903C901397EB0157
:100B50008A819B811496AD90BD90CD90DC901797C3
:100B6000EC80FD800E811F819101281B390BB9019A
:100B700037FF04C066277727621B730B603271054D
:100B80000CF061C0121613066CF537014801062EF1
:100B900004C096948794779467940A94D2F721E0DE
:100BA00030E040E050E004C0220F331F441F551FC7
:100BB0006A95D2F721503040404050402E213F21CD
:100BC00040235123211531054105510521F021E034
:100BD00030E040E050E079018A01E628F728082952
:100BE00019293CC0232BD1F1260E371E35014601B1
:100BF000062E04C096948794779467940A94D2F74B
:100C000021E030E040E050E004C0220F331F441FD9
:100C1000551F6A95D2F721503040404050402A215C
:100C20003B214C215D21211531054105510521F064
:100C300021E030E040E050E059016A01A628B728E1
:100C4000C828D9280BC0821593052CF01C01AA24B2
:100C5000BB24650103C0EE24FF24870111969C91FB
:100C6000D20111968C91981709F445C0992339F057
:100C7000A80197012A193B094C095D0906C0A60184
:100C800095012E193F09400B510B57FD08C01182E9
:100C90003382228224833583468357831DC081E0BB
:100CA00081833382228288279927DC01821B930B60
:100CB000A40BB50B84839583A683B7830DC0220F45
:100CC000331F441F551F24833583468357838281F6
:100CD0009381019793838283248135814681578153
:100CE000DA01C9010197A109B1098F5F9F4FAF4F89
:100CF000BF4328F30BC0918333822282EA0CFB1C92
:100D00000C1D1D1DE482F5820683178383E080831A
:100D1000248135814681578157FF1AC0C901AA270E
:100D200097FDA095BA2F81709070A070B070569505
:100D3000479537952795822B932BA42BB52B84832E
:100D40009583A683B783828193810196938382835F
:100D5000DF0101C0D201CD01CDB7DEB7E2E10C94D5
:100D6000460BA0E2B0E0E7EBF6E00C94360B6983AB
:100D70007A838B839C832D833E834F835887E9E05E
:100D8000EE2EF12CEC0EFD1ECE010196B7010E9455
:100D90008B0A8E010F5E1F4FCE010596B8010E948F
:100DA0008B0A8A8991E089278A8BC701B801AE0135
:100DB000475E5F4F0E9465050E94B609A096E6E077
:100DC0000C94520BA0E2B0E0E8EEF6E00C94360B87
:100DD00069837A838B839C832D833E834F835887DB
:100DE000F9E0EF2EF12CEC0EFD1ECE010196B701BD
:100DF0000E948B0A8E010F5E1F4FCE010596B8012F
:100E00000E948B0AC701B801AE01475E5F4F0E9486
:100E100065050E94B609A096E6E00C94520BA0E28C
:100E2000B0E0E5E1F7E00C942A0B69837A838B83C9
:100E30009C832D833E834F835887CE010196BE014C
:100E4000675F7F4F0E948B0ACE010596BE016F5EE1
:100E50007F4F0E948B0A9985923088F08989823071
:100E6000C8F0943019F4823051F404C0843029F46D
:100E7000923081F480E491E0C6C0923049F420E0E1
:100E80009A858A89981321E02A87CE010996BBC0EA
:100E9000823049F420E09A858A89981321E02A8BD0
:100EA000CE014196B0C02D843E844F8458886D8811
:100EB0007E888F88988CEE24FF248701AA24BB2487
:100EC000650140E050E060E070E0E0E0F0E0C1018A
:100ED00081709070892BE9F0E60CF71C081D191D34
:100EE0009A01AB012A0D3B1D4C1D5D1D80E090E079
:100EF000A0E0B0E0E614F7040805190520F481E04D
:100F000090E0A0E0B0E0BA01A901480F591F6A1FA4
:100F10007B1FAA0CBB1CCC1CDD1C97FE08C081E00B
:100F200090E0A0E0B0E0A82AB92ACA2ADB2A3196CC
:100F3000E032F10549F0660C771C881C991C569428
:100F4000479437942794C3CFFA85EA892B893C8943
:100F50008B859C85280F391F2E5F3F4F17C0CA0114
:100F600081709070892B61F016950795F794E7943E
:100F700080E090E0A0E0B0E8E82AF92A0A2B1B2BD9
:100F800076956795579547952F5F3F4F77FDE7CF4C
:100F90000CC0440F551F661F771F17FD4160EE0CF4
:100FA000FF1C001F111F21503040403090E05907B6
:100FB00090E0690790E4790760F32B8F3C8FDB01A9
:100FC000CA018F779070A070B07080349105A10530
:100FD000B10561F447FD0AC0E114F10401051105F2
:100FE00029F0405C5F4F6F4F7F4F40781A8EFE179D
:100FF00011F081E08A8F4D8F5E8F6F8F78A383E031
:10100000898FCE0149960E94B609A096E2E10C9420
:10101000460BA8E1B0E0EFE0F8E00C94320B6983F6
:101020007A838B839C832D833E834F835887B9E0DB
:10103000EB2EF12CEC0EFD1ECE010196B7010E94A5
:101040008B0A8E010F5E1F4FCE010596B8010E94DC
:101050008B0A2985223008F47EC03989323010F499
:10106000B8017CC08A859A8989278A87243011F043
:10107000223031F4231709F06EC060E471E06EC0D5
:10108000343039F41D861E861F86188A1C861B86FE
:1010900004C0323021F484E08987B7015FC02B851A
:1010A0003C858B899C89281B390B3C872B87ED84D9
:1010B000FE840F851889AD88BE88CF88D88CEA1445
:1010C000FB040C051D0540F4EE0CFF1C001F111F56
:1010D000215030403C872B8720E030E040E050E05A
:1010E00080E090E0A0E0B0E460E070E0EA14FB048F
:1010F0000C051D0540F0282B392B4A2B5B2BEA18D9
:10110000FB080C091D09B695A79597958795EE0CD8
:10111000FF1C001F111F6F5F7F4F6F31710531F78B
:10112000DA01C9018F779070A070B070803491059A
:10113000A105B10561F427FD0AC0E114F104010520
:10114000110529F0205C3F4F4F4F5F4F20782D87CE
:101150003E874F87588BBE01675F7F4FCB010E9450
:10116000B6096896EAE00C944E0BA8E0B0E0EBEB11
:10117000F8E00C94330B9B01AC0183E08983DA0126
:10118000C9018827B7FD83959927AA27BB27B82EC1
:10119000211531054105510519F482E089833AC0D2
:1011A0008823A9F0203080E0380780E0480780E8F5
:1011B000580729F460E070E080E09FEC30C0EE2436
:1011C000FF248701E21AF30A040B150B02C0790110
:1011D0008A018EE1C82ED12CDC82CB82ED82FE8288
:1011E0000F831887C801B7010E9467090197181675
:1011F000190684F4082E04C0EE0CFF1C001F111FFA
:101200000A94D2F7ED82FE820F831887C81AD90A92
:10121000DC82CB82BA82CE0101960E94B609289662
:10122000E9E00C944F0BACE0B0E0E9E1F9E00C949C
:101230003A0B69837A838B839C83CE010196BE012E
:101240006B5F7F4F0E948B0A8D81823061F182300B
:1012500050F1843021F48E81882351F12EC02F81EA
:10126000388537FD20C06E812F3131051CF0662393
:10127000F9F023C08EE190E0821B930B29853A851B
:101280004B855C8504C056954795379527958A957B
:10129000D2F76623B1F050954095309521953F4F98
:1012A0004F4F5F4F0EC020E030E040E050E009C0FB
:1012B0002FEF3FEF4FEF5FE704C020E030E040E06A
:1012C00050E8B901CA012C96E2E00C94560BEF925B
:1012D000FF920F931F937B018C0180E0E81680E062
:1012E000F80681E0080780E0180788F48FEFE81619
:1012F000F1040105110531F028F088E090E0A0E04C
:10130000B0E017C080E090E0A0E0B0E012C080E064
:10131000E81680E0F80680E0080781E0180728F06A
:1013200088E190E0A0E0B0E004C080E190E0A0E0BF
:10133000B0E020E230E040E050E0281B390B4A0BDF
:101340005B0B04C016950795F794E7948A95D2F73E
:10135000F701E85BFE4F8081281B310941095109E3
:10136000C9011F910F91FF90EF900895DF92EF92C6
:10137000FF920F931F93FC01E480F5800681178193
:10138000D1808081823048F480E090E0A0E1B0E03C
:10139000E82AF92A0A2B1B2BA5C0843009F49FC028
:1013A000823021F4EE24FF24870105C0E114F1040A
:1013B0000105110519F4E0E0F0E096C06281738147
:1013C0009FEF623879070CF05BC022E83FEF261BE5
:1013D000370B2A3131052CF020E030E040E050E0BE
:1013E0002AC0B801A701022E04C0769567955795CB
:1013F00047950A94D2F781E090E0A0E0B0E004C005
:10140000880F991FAA1FBB1F2A95D2F70197A10920
:10141000B1098E219F21A023B1230097A105B10519
:1014200021F081E090E0A0E0B0E09A01AB01282B30
:10143000392B4A2B5B2BDA01C9018F779070A07092
:10144000B07080349105A105B10539F427FF09C0BA
:10145000205C3F4F4F4F5F4F04C0215C3F4F4F4FC9
:101460005F4FE0E0F0E02030A0E03A07A0E04A075C
:10147000A0E45A0710F0E1E0F0E079018A0127C00A
:101480006038710564F5FB01E158FF4FD801C701D1
:101490008F779070A070B07080349105A105B10570
:1014A00039F4E7FE0DC080E490E0A0E0B0E004C0B5
:1014B0008FE390E0A0E0B0E0E80EF91E0A1F1B1FCA
:1014C00017FF05C016950795F794E794319687E0C6
:1014D00016950795F794E7948A95D1F705C0EE2401
:1014E000FF248701EFEFF0E06E2F67956627679581
:1014F000902F9F77D794DD24D7948E2F8695492FF0
:10150000462B582F5D29B701CA011F910F91FF90FB
:10151000EF90DF900895FC01DB0140815181228131
:10152000622F6F7770E0221F2227221F9381892F5D
:10153000880F822B282F30E0991F9927991F119629
:101540009C93119721153105A9F5411551056105A8
:10155000710511F482E037C082E89FEF13969C93E7
:101560008E9312979A01AB0167E0220F331F441F3D
:10157000551F6A95D1F783E08C930DC0220F331F5E
:10158000441F551F12968D919C91139701971396A6
:101590009C938E931297203080E0380780E04807B4
:1015A00080E4580758F314962D933D934D935C9324
:1015B000179708952F3F310579F4411551056105BD
:1015C000710519F484E08C93089564FF03C081E0F1
:1015D0008C9312C01C9210C02F57304013963C932E
:1015E0002E93129783E08C9387E0440F551F661F5C
:1015F000771F8A95D1F7706414964D935D936D9320
:101600007C9317970895AA1BBB1B51E107C0AA1F23
:10161000BB1FA617B70710F0A61BB70B881F991F93
:101620005A95A9F780959095BC01CD01089597FB37
:10163000092E07260AD077FD04D0E5DF06D000206A
:101640001AF4709561957F4F0895F6F790958195FE
:101650009F4F08952F923F924F925F926F927F9289
:101660008F929F92AF92BF92CF92DF92EF92FF92B2
:101670000F931F93CF93DF93CDB7DEB7CA1BDB0B5E
:101680000FB6F894DEBF0FBECDBF09942A88398803
:1016900048885F846E847D848C849B84AA84B9840A
:1016A000C884DF80EE80FD800C811B81AA81B98116
:1016B000CE0FD11D0FB6F894DEBF0FBECDBFED012A
:0616C0000895F894FFCF2D
:1016C600FF03FF03FF03FF03FF03FF03FF03FF0304
:1016D600B0FFBAFFCEFF0000000032004600500007
:1016E600090008000A0002000600040005000100C7
:1016F60010005000400060002000A0008000900014
:1017060000000000000000000001020203030303C2
:10171600040404040404040405050505050505057B
:10172600050505050505050506060606060606065B
:101736000606060606060606060606060606060643
:10174600060606060606060607070707070707072B
:101756000707070707070707070707070707070713
:101766000707070707070707070707070707070703
:1017760007070707070707070707070707070707F3
:1017860007070707070707070808080808080808DB
:1017960008080808080808080808080808080808C3
:1017A60008080808080808080808080808080808B3
:1017B60008080808080808080808080808080808A3
:1017C6000808080808080808080808080808080893
:1017D6000808080808080808080808080808080883
:1017E6000808080808080808080808080808080873
:1017F6000808080808080808080808080808080863
:0818060008080808080808089A
:00000001FF
