S01700004763634170706C69636174696F6E312E737265635B
S113000045C0000060C000005EC000005CC000008D
S11300105AC0000058C0000056C0000054C0000080
S113002052C0000050C000004EC000004CC0000090
S11300304AC0000048C0000046C0000044C00000A0
S113004042C0000040C000003EC000003CC00000B0
S11300503AC0000038C0000036C0000034C00000C0
S113006032C0000030C000002EC000002CC00000D0
S11300702AC0000028C0000026C0000024C00000E0
S113008022C0000020C000001EC0000011241FBEBA
S1130090CFEFD0E1DEBFCDBF11E0A0E0B1E0EAE3F5
S11300A0F6E000E00BBF02C007900D92A032B1074A
S11300B0D9F721E0A0E2B1E001C01D92A035B2075A
S11300C0E1F715D1B8C29CCF8FEF8ABB81BB8FEE0D
S11300D082B91092610088E08BBB17B887E886B9B3
S11300E008958FEF87BB9FE693BF9DE695BD82BFC2
S11300F084BD8CE381BF83BD0895FC0120E030E022
S113010041E050E0CA01022E02C0880F991F0A94F0
S1130110E2F782BB86B1806C86B9349BFECF84B192
S113012095B18193919312BA2730310519F480EC7B
S113013087B9089581EC820F87B92F5F3F4F28302C
S1130140310501F708950F931F93CF93DF93EC01CB
S1130150062F172FE42FF52F80E090E0AF012081C8
S11301603181688179816217730714F43983288394
S1130170DA012D913C913296D8014D915C91119701
S11301802417350714F42D933C93019622960E5FA1
S11301901F4F8830910511F7DF91CF911F910F9177
S11301A008952F923F924F925F926F927F928F9217
S11301B09F92AF92BF92CF92DF92EF92FF920F93F2
S11301C01F93CF93DF93A42EB52EC62ED72EE22EE7
S11301D0F32E4C01C0E0D0E0F501019111915F01D3
S11301E0F601819191916F01F701219031907F0186
S11301F0B801681B790B882777FD8095982F2CD13F
S11302002B013C01B80162197309882777FD809599
S1130210982F22D19B01AC01C301B20182D020E00E
S113022030E048EC52E4A4D1E4D0F401619371933A
S11302304F012196C830D10579F6DF91CF911F91F6
S11302400F91FF90EF90DF90CF90BF90AF909F9071
S11302508F907F906F905F904F903F902F90089574
S1130260CF93DF93CDB7DEB760970FB6F894DEBFB8
S11302700FBECDBF20E1E0E1F1E0DE011196019077
S11302800D922A95E1F7DC01FE013196AE014F5E35
S11302905F4F80E090E02D913D912C33310524F0A7
S11302A020813181820F931F3296E417F50799F765
S11302B060960FB6F894DEBF0FBECDBFDF91CF912D
S11302C00895893C2FEF920721F08733910521F09F
S11302D006C088E18BBB089588E28BBB089598E043
S11302E09BBB9CE3981B93BD845C81BF0895F9DE9E
S11302F0EBDE80E491E001DF40E451E060E071E096
S113030080E391E020DF20E031E040E351E060E46D
S113031071E080E291E045DF80E291E0A1DFD1DF8E
S1130320E8CF0CD0EBC0E3D040F0DAD030F021F4C9
S11303305F3F19F0CCC0511115C1CFC0F0D098F374
S11303409923C9F35523B1F3951B550BBB27AA2752
S113035062177307840738F09F5F5F4F220F331FC4
S1130360441FAA1FA9F333D00E2E3AF0E0E830D090
S113037091505040E695001CCAF729D0FE2F27D093
S1130380660F771F881FBB1F261737074807AB0761
S1130390B0E809F0BB0B802DBF01FF2793585F4FD6
S11303A02AF09E3F510568F092C0DCC05F3FECF339
S11303B0983EDCF3869577956795B795F7959F5F9B
S11303C0C9F7880F911D9695879597F90895E1E0EF
S11303D0660F771F881FBB1F621773078407BA074E
S11303E020F0621B730B840BBA0BEE1F88F7E095A9
S11303F0089504D06894B111B5C0089598D088F0D8
S11304009F5790F0B92F9927B751A0F0D1F0660FFC
S1130410771F881F991F1AF0BA95C9F712C0B13017
S113042081F09FD0B1E008959CC0672F782F882772
S1130430B85F39F0B93FCCF3869577956795B39556
S1130440D9F73EF490958095709561957F4F8F4FC5
S11304509F4F0895E89409C097FB3EF490958095CA
S1130460709561957F4F8F4F9F4F9923A9F0F92F76
S113047096E9BB279395F695879577956795B795F4
S1130480F111F8CFFAF4BB0F11F460FF1BC06F5FDA
S11304907F4F8F4F9F4F16C0882311F096E911C0EC
S11304A0772321F09EE8872F762F05C0662371F00D
S11304B096E8862F70E060E02AF09A95660F771F21
S11304C0881FDAF7880F9695879597F9089597F915
S11304D09F6780E870E060E008959FEF80EC0895E6
S11304E000240A941616170618060906089500240F
S11304F00A9412161306140605060895092E039489
S1130500000C11F4882352F0BB0F40F4BF2B11F4FC
S113051060FF04C06F5F7F4F8F4F9F4F089557FD5B
S11305209058440F551F59F05F3F71F04795880F5D
S113053097FB991F61F09F3F79F0879508951216F4
S113054013061406551FF2CF4695F1DF08C01616A0
S113055017061806991FF1CF869571056105089451
S11305600895E894BB2766277727CB0197F9089568
S11305700BD0C4CFB5DF28F0BADF18F0952309F00B
S1130580A6CFABCF1124EECFCADFA0F3959FD1F352
S1130590950F50E0551F629FF001729FBB27F00D2D
S11305A0B11D639FAA27F00DB11DAA1F649F662782
S11305B0B00DA11D661F829F2227B00DA11D621FD1
S11305C0739FB00DA11D621F839FA00D611D221F8B
S11305D0749F3327A00D611D231F849F600D211D6F
S11305E0822F762F6A2F11249F5750408AF0E1F012
S11305F088234AF0EE0FFF1FBB1F661F771F881F5B
S113060091505040A9F79E3F510570F060CFAACF9A
S11306105F3FECF3983EDCF3869577956795B79545
S1130620F795E7959F5FC1F7FE2B880F911D96956F
S10D0630879597F90895F894FFCF19
S113063AFF03FF03FF03FF03FF03FF03FF03FF039C
S113064AC9FFCEFFF6FF000000000A00320037009F
S9030000FC
